{
  "contractName": "flashLoanContractTest",
  "abi": [
    {
      "inputs": [
        {
          "internalType": "address",
          "name": "mainBNBAddress",
          "type": "address"
        },
        {
          "internalType": "address",
          "name": "mainWBNBAddress",
          "type": "address"
        }
      ],
      "stateMutability": "nonpayable",
      "type": "constructor"
    },
    {
      "anonymous": false,
      "inputs": [
        {
          "indexed": false,
          "internalType": "address",
          "name": "token",
          "type": "address"
        },
        {
          "indexed": false,
          "internalType": "uint256",
          "name": "value",
          "type": "uint256"
        },
        {
          "indexed": false,
          "internalType": "uint256",
          "name": "fee",
          "type": "uint256"
        }
      ],
      "name": "LoanPayed",
      "type": "event"
    },
    {
      "anonymous": false,
      "inputs": [
        {
          "indexed": false,
          "internalType": "address",
          "name": "token",
          "type": "address"
        },
        {
          "indexed": false,
          "internalType": "uint256",
          "name": "value",
          "type": "uint256"
        },
        {
          "indexed": false,
          "internalType": "uint256",
          "name": "fee",
          "type": "uint256"
        }
      ],
      "name": "LoanTaken",
      "type": "event"
    },
    {
      "anonymous": false,
      "inputs": [
        {
          "indexed": true,
          "internalType": "address",
          "name": "previousOwner",
          "type": "address"
        },
        {
          "indexed": true,
          "internalType": "address",
          "name": "newOwner",
          "type": "address"
        }
      ],
      "name": "OwnershipTransferred",
      "type": "event"
    },
    {
      "anonymous": false,
      "inputs": [
        {
          "indexed": true,
          "internalType": "address",
          "name": "a",
          "type": "address"
        },
        {
          "indexed": true,
          "internalType": "address",
          "name": "b",
          "type": "address"
        },
        {
          "indexed": true,
          "internalType": "address",
          "name": "c",
          "type": "address"
        },
        {
          "indexed": false,
          "internalType": "uint256",
          "name": "am",
          "type": "uint256"
        },
        {
          "indexed": false,
          "internalType": "uint256",
          "name": "bm",
          "type": "uint256"
        },
        {
          "indexed": false,
          "internalType": "uint256",
          "name": "cm",
          "type": "uint256"
        }
      ],
      "name": "SwapDone",
      "type": "event"
    },
    {
      "stateMutability": "payable",
      "type": "fallback",
      "payable": true
    },
    {
      "inputs": [],
      "name": "BNB_ADDRESS",
      "outputs": [
        {
          "internalType": "address",
          "name": "",
          "type": "address"
        }
      ],
      "stateMutability": "view",
      "type": "function",
      "constant": true
    },
    {
      "inputs": [],
      "name": "addressesProvider",
      "outputs": [
        {
          "internalType": "contract ILendingPoolAddressesProvider",
          "name": "",
          "type": "address"
        }
      ],
      "stateMutability": "view",
      "type": "function",
      "constant": true
    },
    {
      "inputs": [],
      "name": "owner",
      "outputs": [
        {
          "internalType": "address",
          "name": "",
          "type": "address"
        }
      ],
      "stateMutability": "view",
      "type": "function",
      "constant": true
    },
    {
      "inputs": [],
      "name": "renounceOwnership",
      "outputs": [],
      "stateMutability": "nonpayable",
      "type": "function"
    },
    {
      "inputs": [
        {
          "internalType": "address",
          "name": "newOwner",
          "type": "address"
        }
      ],
      "name": "transferOwnership",
      "outputs": [],
      "stateMutability": "nonpayable",
      "type": "function"
    },
    {
      "inputs": [
        {
          "internalType": "address",
          "name": "_reserve",
          "type": "address"
        },
        {
          "internalType": "uint256",
          "name": "_amount",
          "type": "uint256"
        },
        {
          "internalType": "uint256",
          "name": "_fee",
          "type": "uint256"
        },
        {
          "internalType": "bytes",
          "name": "_params",
          "type": "bytes"
        }
      ],
      "name": "executeOperation",
      "outputs": [],
      "stateMutability": "nonpayable",
      "type": "function"
    },
    {
      "inputs": [
        {
          "internalType": "address",
          "name": "loanToken",
          "type": "address"
        },
        {
          "internalType": "uint256",
          "name": "amount",
          "type": "uint256"
        },
        {
          "internalType": "bytes",
          "name": "data",
          "type": "bytes"
        }
      ],
      "name": "getFlashLoan",
      "outputs": [],
      "stateMutability": "nonpayable",
      "type": "function"
    },
    {
      "inputs": [
        {
          "internalType": "uint256",
          "name": "bnbAmount",
          "type": "uint256"
        }
      ],
      "name": "executeSwaps",
      "outputs": [],
      "stateMutability": "nonpayable",
      "type": "function"
    },
    {
      "inputs": [
        {
          "internalType": "address",
          "name": "_to",
          "type": "address"
        },
        {
          "internalType": "uint256",
          "name": "_amount",
          "type": "uint256"
        }
      ],
      "name": "withdraw",
      "outputs": [],
      "stateMutability": "nonpayable",
      "type": "function"
    },
    {
      "inputs": [
        {
          "internalType": "address",
          "name": "_to",
          "type": "address"
        },
        {
          "internalType": "uint256",
          "name": "_amount",
          "type": "uint256"
        },
        {
          "internalType": "address",
          "name": "_token",
          "type": "address"
        }
      ],
      "name": "withdrawToken",
      "outputs": [],
      "stateMutability": "nonpayable",
      "type": "function"
    },
    {
      "inputs": [
        {
          "internalType": "bytes",
          "name": "data",
          "type": "bytes"
        }
      ],
      "name": "decode",
      "outputs": [
        {
          "internalType": "uint256",
          "name": "a",
          "type": "uint256"
        },
        {
          "internalType": "bool",
          "name": "b",
          "type": "bool"
        }
      ],
      "stateMutability": "pure",
      "type": "function",
      "constant": true
    }
  ],
  "bytecode": "0x60806040527310ed43c718714eb63d5aa57b78b54704e256024e600260006101000a81548173ffffffffffffffffffffffffffffffffffffffff021916908373ffffffffffffffffffffffffffffffffffffffff16021790555060058055600260009054906101000a900473ffffffffffffffffffffffffffffffffffffffff16600f60016101000a81548173ffffffffffffffffffffffffffffffffffffffff021916908373ffffffffffffffffffffffffffffffffffffffff160217905550348015620000cd57600080fd5b5060405162002458380380620024588339818101604052810190620000f39190620002a3565b7378547cbf195dc3d92c5847acd9e89afb35430c0f60006200011a6200028460201b60201c565b9050806000806101000a81548173ffffffffffffffffffffffffffffffffffffffff021916908373ffffffffffffffffffffffffffffffffffffffff1602179055508073ffffffffffffffffffffffffffffffffffffffff16600073ffffffffffffffffffffffffffffffffffffffff167f8be0079c531659141344cd1fd0a4f28419497f9722a3daafe3b4186f6b6457e060405160405180910390a35080600160006101000a81548173ffffffffffffffffffffffffffffffffffffffff021916908373ffffffffffffffffffffffffffffffffffffffff1602179055505081600360006101000a81548173ffffffffffffffffffffffffffffffffffffffff021916908373ffffffffffffffffffffffffffffffffffffffff16021790555080600460006101000a81548173ffffffffffffffffffffffffffffffffffffffff021916908373ffffffffffffffffffffffffffffffffffffffff160217905550505062000332565b600033905090565b6000815190506200029d8162000318565b92915050565b60008060408385031215620002b757600080fd5b6000620002c7858286016200028c565b9250506020620002da858286016200028c565b9150509250929050565b6000620002f182620002f8565b9050919050565b600073ffffffffffffffffffffffffffffffffffffffff82169050919050565b6200032381620002e4565b81146200032f57600080fd5b50565b61211680620003426000396000f3fe6080604052600436106100a05760003560e01c8063c72c4d1011610064578063c72c4d1014610162578063d60747841461018d578063e5c5e9a3146101b6578063ee872558146101f4578063f2fde38b1461021d578063f3fef3a314610246576100a1565b80633ccdbb28146100a3578063697f7277146100cc57806370de629f146100f5578063715018a6146101205780638da5cb5b14610137576100a1565b5b005b3480156100af57600080fd5b506100ca60048036038101906100c59190611573565b61026f565b005b3480156100d857600080fd5b506100f360048036038101906100ee9190611713565b610572565b005b34801561010157600080fd5b5061010a61062d565b6040516101179190611bee565b60405180910390f35b34801561012c57600080fd5b50610135610645565b005b34801561014357600080fd5b5061014c61077f565b6040516101599190611bee565b60405180910390f35b34801561016e57600080fd5b506101776107a8565b6040516101849190611cb5565b60405180910390f35b34801561019957600080fd5b506101b460048036038101906101af91906115c2565b6107ce565b005b3480156101c257600080fd5b506101dd60048036038101906101d891906116d2565b61096b565b6040516101eb929190611e32565b60405180910390f35b34801561020057600080fd5b5061021b60048036038101906102169190611629565b610981565b005b34801561022957600080fd5b50610244600480360381019061023f91906114bc565b610a52565b005b34801561025257600080fd5b5061026d60048036038101906102689190611537565b610bfb565b005b610277610de0565b73ffffffffffffffffffffffffffffffffffffffff1661029561077f565b73ffffffffffffffffffffffffffffffffffffffff16146102eb576040517f08c379a00000000000000000000000000000000000000000000000000000000081526004016102e290611d72565b60405180910390fd5b600073ffffffffffffffffffffffffffffffffffffffff168373ffffffffffffffffffffffffffffffffffffffff16141561035b576040517f08c379a000000000000000000000000000000000000000000000000000000000815260040161035290611e12565b60405180910390fd5b600073ffffffffffffffffffffffffffffffffffffffff168173ffffffffffffffffffffffffffffffffffffffff1614156103cb576040517f08c379a00000000000000000000000000000000000000000000000000000000081526004016103c290611df2565b60405180910390fd5b60008173ffffffffffffffffffffffffffffffffffffffff166370a08231306040518263ffffffff1660e01b81526004016104069190611bee565b60206040518083038186803b15801561041e57600080fd5b505afa158015610432573d6000803e3d6000fd5b505050506040513d601f19601f82011682018060405250810190610456919061173c565b905080831061049a576040517f08c379a000000000000000000000000000000000000000000000000000000000815260040161049190611dd2565b60405180910390fd5b60008273ffffffffffffffffffffffffffffffffffffffff1663a9059cbb86866040518363ffffffff1660e01b81526004016104d7929190611c55565b602060405180830381600087803b1580156104f157600080fd5b505af1158015610505573d6000803e3d6000fd5b505050506040513d601f19601f8201168201806040525081019061052991906116a9565b90508061056b576040517f08c379a000000000000000000000000000000000000000000000000000000000815260040161056290611d32565b60405180910390fd5b5050505050565b61057a610de0565b73ffffffffffffffffffffffffffffffffffffffff1661059861077f565b73ffffffffffffffffffffffffffffffffffffffff16146105ee576040517f08c379a00000000000000000000000000000000000000000000000000000000081526004016105e590611d72565b60405180910390fd5b61062a600360009054906101000a900473ffffffffffffffffffffffffffffffffffffffff1682604051806020016040528060008152506107ce565b50565b73eeeeeeeeeeeeeeeeeeeeeeeeeeeeeeeeeeeeeeee81565b61064d610de0565b73ffffffffffffffffffffffffffffffffffffffff1661066b61077f565b73ffffffffffffffffffffffffffffffffffffffff16146106c1576040517f08c379a00000000000000000000000000000000000000000000000000000000081526004016106b890611d72565b60405180910390fd5b600073ffffffffffffffffffffffffffffffffffffffff1660008054906101000a900473ffffffffffffffffffffffffffffffffffffffff1673ffffffffffffffffffffffffffffffffffffffff167f8be0079c531659141344cd1fd0a4f28419497f9722a3daafe3b4186f6b6457e060405160405180910390a360008060006101000a81548173ffffffffffffffffffffffffffffffffffffffff021916908373ffffffffffffffffffffffffffffffffffffffff160217905550565b60008060009054906101000a900473ffffffffffffffffffffffffffffffffffffffff16905090565b600160009054906101000a900473ffffffffffffffffffffffffffffffffffffffff1681565b6107d6610de0565b73ffffffffffffffffffffffffffffffffffffffff166107f461077f565b73ffffffffffffffffffffffffffffffffffffffff161461084a576040517f08c379a000000000000000000000000000000000000000000000000000000000815260040161084190611d72565b60405180910390fd5b60008390506000600160009054906101000a900473ffffffffffffffffffffffffffffffffffffffff1673ffffffffffffffffffffffffffffffffffffffff16630261bf8b6040518163ffffffff1660e01b815260040160206040518083038186803b1580156108b957600080fd5b505afa1580156108cd573d6000803e3d6000fd5b505050506040513d601f19601f820116820180604052508101906108f191906114e5565b90508073ffffffffffffffffffffffffffffffffffffffff16635cffe9de308487876040518563ffffffff1660e01b81526004016109329493929190611c09565b600060405180830381600087803b15801561094c57600080fd5b505af1158015610960573d6000803e3d6000fd5b505050505050505050565b6000806020830151915060088301519050915091565b61098b3086610de8565b8411156109cd576040517f08c379a00000000000000000000000000000000000000000000000000000000081526004016109c490611d52565b60405180910390fd5b7e6b9bb4766cf5ab74b890df959e4fad0e54b1c3885e49c9541d36253a6e39e6600660009054906101000a900473ffffffffffffffffffffffffffffffffffffffff168585604051610a2193929190611c7e565b60405180910390a16000610a3e8486610ee390919063ffffffff16565b9050610a4a8682610ef9565b505050505050565b610a5a610de0565b73ffffffffffffffffffffffffffffffffffffffff16610a7861077f565b73ffffffffffffffffffffffffffffffffffffffff1614610ace576040517f08c379a0000000000000000000000000000000000000000000000000000000008152600401610ac590611d72565b60405180910390fd5b600073ffffffffffffffffffffffffffffffffffffffff168173ffffffffffffffffffffffffffffffffffffffff161415610b3e576040517f08c379a0000000000000000000000000000000000000000000000000000000008152600401610b3590611cf2565b60405180910390fd5b8073ffffffffffffffffffffffffffffffffffffffff1660008054906101000a900473ffffffffffffffffffffffffffffffffffffffff1673ffffffffffffffffffffffffffffffffffffffff167f8be0079c531659141344cd1fd0a4f28419497f9722a3daafe3b4186f6b6457e060405160405180910390a3806000806101000a81548173ffffffffffffffffffffffffffffffffffffffff021916908373ffffffffffffffffffffffffffffffffffffffff16021790555050565b610c03610de0565b73ffffffffffffffffffffffffffffffffffffffff16610c2161077f565b73ffffffffffffffffffffffffffffffffffffffff1614610c77576040517f08c379a0000000000000000000000000000000000000000000000000000000008152600401610c6e90611d72565b60405180910390fd5b6000479050808210610cbe576040517f08c379a0000000000000000000000000000000000000000000000000000000008152600401610cb590611dd2565b60405180910390fd5b600073ffffffffffffffffffffffffffffffffffffffff168373ffffffffffffffffffffffffffffffffffffffff161415610d2e576040517f08c379a0000000000000000000000000000000000000000000000000000000008152600401610d2590611e12565b60405180910390fd5b60008373ffffffffffffffffffffffffffffffffffffffff1683604051610d5490611bd9565b60006040518083038185875af1925050503d8060008114610d91576040519150601f19603f3d011682016040523d82523d6000602084013e610d96565b606091505b5050905080610dda576040517f08c379a0000000000000000000000000000000000000000000000000000000008152600401610dd190611d32565b60405180910390fd5b50505050565b600033905090565b600073eeeeeeeeeeeeeeeeeeeeeeeeeeeeeeeeeeeeeeee73ffffffffffffffffffffffffffffffffffffffff168273ffffffffffffffffffffffffffffffffffffffff161415610e51578273ffffffffffffffffffffffffffffffffffffffff16319050610edd565b8173ffffffffffffffffffffffffffffffffffffffff166370a08231846040518263ffffffff1660e01b8152600401610e8a9190611bee565b60206040518083038186803b158015610ea257600080fd5b505afa158015610eb6573d6000803e3d6000fd5b505050506040513d601f19601f82011682018060405250810190610eda919061173c565b90505b92915050565b60008183610ef19190611eff565b905092915050565b6000600160009054906101000a900473ffffffffffffffffffffffffffffffffffffffff1673ffffffffffffffffffffffffffffffffffffffff1663ed6ff7606040518163ffffffff1660e01b815260040160206040518083038186803b158015610f6357600080fd5b505afa158015610f77573d6000803e3d6000fd5b505050506040513d601f19601f82011682018060405250810190610f9b919061150e565b9050610fa8818484610fad565b505050565b73eeeeeeeeeeeeeeeeeeeeeeeeeeeeeeeeeeeeeeee73ffffffffffffffffffffffffffffffffffffffff168273ffffffffffffffffffffffffffffffffffffffff161415611068578273ffffffffffffffffffffffffffffffffffffffff168161c3509060405161101d90611bd9565b600060405180830381858888f193505050503d806000811461105b576040519150601f19603f3d011682016040523d82523d6000602084013e611060565b606091505b505050611094565b61109383828473ffffffffffffffffffffffffffffffffffffffff166110999092919063ffffffff16565b5b505050565b61111a8363a9059cbb60e01b84846040516024016110b8929190611c55565b604051602081830303815290604052907bffffffffffffffffffffffffffffffffffffffffffffffffffffffff19166020820180517bffffffffffffffffffffffffffffffffffffffffffffffffffffffff838183161783525050505061111f565b505050565b6000611181826040518060400160405280602081526020017f5361666545524332303a206c6f772d6c6576656c2063616c6c206661696c65648152508573ffffffffffffffffffffffffffffffffffffffff166111e69092919063ffffffff16565b90506000815111156111e157808060200190518101906111a191906116a9565b6111e0576040517f08c379a00000000000000000000000000000000000000000000000000000000081526004016111d790611db2565b60405180910390fd5b5b505050565b60606111f584846000856111fe565b90509392505050565b606082471015611243576040517f08c379a000000000000000000000000000000000000000000000000000000000815260040161123a90611d12565b60405180910390fd5b61124c85611312565b61128b576040517f08c379a000000000000000000000000000000000000000000000000000000000815260040161128290611d92565b60405180910390fd5b6000808673ffffffffffffffffffffffffffffffffffffffff1685876040516112b49190611bc2565b60006040518083038185875af1925050503d80600081146112f1576040519150601f19603f3d011682016040523d82523d6000602084013e6112f6565b606091505b5091509150611306828286611325565b92505050949350505050565b600080823b905060008111915050919050565b6060831561133557829050611385565b6000835111156113485782518084602001fd5b816040517f08c379a000000000000000000000000000000000000000000000000000000000815260040161137c9190611cd0565b60405180910390fd5b9392505050565b600061139f61139a84611e8c565b611e5b565b9050828152602081018484840111156113b757600080fd5b6113c2848285611fd3565b509392505050565b6000813590506113d981612084565b92915050565b6000815190506113ee81612084565b92915050565b6000815190506114038161209b565b92915050565b600081519050611418816120b2565b92915050565b60008083601f84011261143057600080fd5b8235905067ffffffffffffffff81111561144957600080fd5b60208301915083600182028301111561146157600080fd5b9250929050565b600082601f83011261147957600080fd5b813561148984826020860161138c565b91505092915050565b6000813590506114a1816120c9565b92915050565b6000815190506114b6816120c9565b92915050565b6000602082840312156114ce57600080fd5b60006114dc848285016113ca565b91505092915050565b6000602082840312156114f757600080fd5b6000611505848285016113df565b91505092915050565b60006020828403121561152057600080fd5b600061152e848285016113f4565b91505092915050565b6000806040838503121561154a57600080fd5b6000611558858286016113ca565b925050602061156985828601611492565b9150509250929050565b60008060006060848603121561158857600080fd5b6000611596868287016113ca565b93505060206115a786828701611492565b92505060406115b8868287016113ca565b9150509250925092565b6000806000606084860312156115d757600080fd5b60006115e5868287016113ca565b93505060206115f686828701611492565b925050604084013567ffffffffffffffff81111561161357600080fd5b61161f86828701611468565b9150509250925092565b60008060008060006080868803121561164157600080fd5b600061164f888289016113ca565b955050602061166088828901611492565b945050604061167188828901611492565b935050606086013567ffffffffffffffff81111561168e57600080fd5b61169a8882890161141e565b92509250509295509295909350565b6000602082840312156116bb57600080fd5b60006116c984828501611409565b91505092915050565b6000602082840312156116e457600080fd5b600082013567ffffffffffffffff8111156116fe57600080fd5b61170a84828501611468565b91505092915050565b60006020828403121561172557600080fd5b600061173384828501611492565b91505092915050565b60006020828403121561174e57600080fd5b600061175c848285016114a7565b91505092915050565b61176e81611f55565b82525050565b61177d81611f79565b82525050565b600061178e82611ebc565b6117988185611ed2565b93506117a8818560208601611fe2565b6117b181612073565b840191505092915050565b60006117c782611ebc565b6117d18185611ee3565b93506117e1818560208601611fe2565b80840191505092915050565b6117f681611faf565b82525050565b600061180782611ec7565b6118118185611eee565b9350611821818560208601611fe2565b61182a81612073565b840191505092915050565b6000611842602683611eee565b91507f4f776e61626c653a206e6577206f776e657220697320746865207a65726f206160008301527f64647265737300000000000000000000000000000000000000000000000000006020830152604082019050919050565b60006118a8602683611eee565b91507f416464726573733a20696e73756666696369656e742062616c616e636520666f60008301527f722063616c6c00000000000000000000000000000000000000000000000000006020830152604082019050919050565b600061190e602083611eee565b91507f5472616e73666572206661696c65642e2074727920616761696e206c617465726000830152602082019050919050565b600061194e602e83611eee565b91507f496e76616c69642062616c616e63652c207761732074686520666c6173684c6f60008301527f616e207375636365737366756c3f0000000000000000000000000000000000006020830152604082019050919050565b60006119b4602083611eee565b91507f4f776e61626c653a2063616c6c6572206973206e6f7420746865206f776e65726000830152602082019050919050565b60006119f4600083611ee3565b9150600082019050919050565b6000611a0e601d83611eee565b91507f416464726573733a2063616c6c20746f206e6f6e2d636f6e74726163740000006000830152602082019050919050565b6000611a4e602a83611eee565b91507f5361666545524332303a204552433230206f7065726174696f6e20646964206e60008301527f6f742073756363656564000000000000000000000000000000000000000000006020830152604082019050919050565b6000611ab4602983611eee565b91507f796f752063616e2774207769746864726177206d6f7265207468616e20796f7560008301527f722062616c616e636500000000000000000000000000000000000000000000006020830152604082019050919050565b6000611b1a602083611eee565b91507f796f75206d7573742061737369676e206120746f6b656e2061646464726573736000830152602082019050919050565b6000611b5a602583611eee565b91507f796f75206d7573742061737369676e20616e206164647265737320746f20736560008301527f6e6420746f0000000000000000000000000000000000000000000000000000006020830152604082019050919050565b611bbc81611fa5565b82525050565b6000611bce82846117bc565b915081905092915050565b6000611be4826119e7565b9150819050919050565b6000602082019050611c036000830184611765565b92915050565b6000608082019050611c1e6000830187611765565b611c2b6020830186611765565b611c386040830185611bb3565b8181036060830152611c4a8184611783565b905095945050505050565b6000604082019050611c6a6000830185611765565b611c776020830184611bb3565b9392505050565b6000606082019050611c936000830186611765565b611ca06020830185611bb3565b611cad6040830184611bb3565b949350505050565b6000602082019050611cca60008301846117ed565b92915050565b60006020820190508181036000830152611cea81846117fc565b905092915050565b60006020820190508181036000830152611d0b81611835565b9050919050565b60006020820190508181036000830152611d2b8161189b565b9050919050565b60006020820190508181036000830152611d4b81611901565b9050919050565b60006020820190508181036000830152611d6b81611941565b9050919050565b60006020820190508181036000830152611d8b816119a7565b9050919050565b60006020820190508181036000830152611dab81611a01565b9050919050565b60006020820190508181036000830152611dcb81611a41565b9050919050565b60006020820190508181036000830152611deb81611aa7565b9050919050565b60006020820190508181036000830152611e0b81611b0d565b9050919050565b60006020820190508181036000830152611e2b81611b4d565b9050919050565b6000604082019050611e476000830185611bb3565b611e546020830184611774565b9392505050565b6000604051905081810181811067ffffffffffffffff82111715611e8257611e81612044565b5b8060405250919050565b600067ffffffffffffffff821115611ea757611ea6612044565b5b601f19601f8301169050602081019050919050565b600081519050919050565b600081519050919050565b600082825260208201905092915050565b600081905092915050565b600082825260208201905092915050565b6000611f0a82611fa5565b9150611f1583611fa5565b9250827fffffffffffffffffffffffffffffffffffffffffffffffffffffffffffffffff03821115611f4a57611f49612015565b5b828201905092915050565b6000611f6082611f85565b9050919050565b6000611f7282611f85565b9050919050565b60008115159050919050565b600073ffffffffffffffffffffffffffffffffffffffff82169050919050565b6000819050919050565b6000611fba82611fc1565b9050919050565b6000611fcc82611f85565b9050919050565b82818337600083830152505050565b60005b83811015612000578082015181840152602081019050611fe5565b8381111561200f576000848401525b50505050565b7f4e487b7100000000000000000000000000000000000000000000000000000000600052601160045260246000fd5b7f4e487b7100000000000000000000000000000000000000000000000000000000600052604160045260246000fd5b6000601f19601f8301169050919050565b61208d81611f55565b811461209857600080fd5b50565b6120a481611f67565b81146120af57600080fd5b50565b6120bb81611f79565b81146120c657600080fd5b50565b6120d281611fa5565b81146120dd57600080fd5b5056fea26469706673582212202cf04f0a4fa81566f8ef25aeff33c3819b19f13678cf3ec322fe930bdf403be264736f6c63430008000033",
  "immutableReferences": {},
  "source": "pragma solidity >=0.5.0;\n\n\nimport \"../node_modules/openzeppelin-solidity/contracts/token/ERC20/ERC20.sol\";\nimport \"../node_modules/openzeppelin-solidity/contracts/utils/math/SafeMath.sol\";\nimport \"../node_modules/openzeppelin-solidity/contracts/access/Ownable.sol\";\nimport \"./base/FlashLoanReceiverBase.sol\";\nimport \"./interfaces/ILendingPool.sol\";\nimport \"./interfaces/ILendingPoolAddressesProvider.sol\";\nimport \"./pancakeSwap/PancakeRouterV2.sol\";\nimport \"./WBNB.sol\";\n\ncontract flashLoanContractTest is Ownable, FlashLoanReceiverBase(address(0x78547CBf195Dc3D92C5847acD9E89aFB35430c0f)) {\n\n    using SafeMath for uint256;\n\n    // testnet address of the pancake router\n    address routerAddress = 0x10ED43C718714eb63d5aA57B78B54704E256024E;\n    // testnet BNB ADDRESS\n    address bnbAddress;\n    address WBNBAddress;\n    uint deadline = 5;\n    address pairA;\n    address pairB;\n    address pairC;\n    uint256 pairAValue;\n    uint256 pairBValue;\n    uint256 pairCValue;\n    uint256 InitGasCost;\n    uint256 minimumProfit;\n    address[] dynamicPathArray;\n    bool currentIsTesting;\n\n    constructor(address mainBNBAddress, address mainWBNBAddress){\n        bnbAddress = mainBNBAddress;\n        WBNBAddress = mainWBNBAddress;\n    }\n\n    event SwapDone(\n        address indexed a,\n        address indexed b,\n        address indexed c,\n        uint256 am,\n        uint256 bm,\n        uint256 cm\n    );\n\n    event LoanTaken(\n        address token,\n        uint256 value,\n        uint256 fee\n    );\n\n    event LoanPayed(\n        address token,\n        uint256 value,\n        uint256 fee\n    );\n\n    Router pancakeRouterV2 = Router(routerAddress);\n\n\n    function directTokenSwap(uint256 minimumProfit, uint256 _amount, uint256 _fee, bool test) internal{\n        uint256 earlyFirstBalance = ERC20(pairA).balanceOf(address(this));\n        address[] memory longPath = new address[](4);\n        longPath[0]=pairA;\n        longPath[1]=pairB;\n        longPath[2]=pairC;\n        longPath[3]=pairA;\n        pancakeRouterV2.swapExactTokensForTokens(_amount, pairAValue, longPath, address(this), block.timestamp+deadline);\n        emit SwapDone(pairA,pairB,pairC,pairAValue,pairBValue,pairCValue);\n\n        uint256 lateFirstBalance = ERC20(pairA).balanceOf(address(this));\n\n        require(lateFirstBalance > earlyFirstBalance.add(minimumProfit).add(_fee), \"didn't make a profit at all\");\n\n        if(currentIsTesting){\n            revert(\"Testing Is Done, the operation was profitable\");\n        }\n    }\n    function DynamicPathWBNBBridgedSwap(uint256 _amount, uint256 _fee, bool test) internal {\n        emit LoanTaken(pairA,_amount,_fee);\n\n        require(dynamicPathArray.length > 0, \"Path array is empty\");\n        // Buy WBNB with loaned BNB\n\n        WBNB(WBNBAddress).deposit{value:_amount, gas:50000}();\n        WBNB(WBNBAddress).approve(routerAddress,_amount);\n\n        // check the balance of WBWB of the contract wallet\n        uint256 earlyFirstBalance = ERC20(WBNBAddress).balanceOf(address(this));\n\n        address[] memory longPath = new address[](dynamicPathArray.length +2);\n        longPath[0]=WBNBAddress;\n        for (uint i=0; i<dynamicPathArray.length; i++){\n            longPath[i+1] = dynamicPathArray[i];\n        }\n        longPath[dynamicPathArray.length+1]=WBNBAddress;\n\n        // Long path swaps execution\n        pancakeRouterV2.swapExactTokensForTokens(_amount, pairAValue, longPath, address(this), block.timestamp+deadline);\n\n        emit SwapDone(pairA,pairB,pairC,pairAValue,pairBValue,pairCValue);\n\n        // reChecking the balance of WBWB of the contract wallet after swap\n        uint256 lateFirstBalance = ERC20(WBNBAddress).balanceOf(address(this));\n\n        // Profit calculation\n        require(lateFirstBalance > earlyFirstBalance.add(InitGasCost).add(_fee), \"didn't make a profit at all\");\n\n        WBNB(WBNBAddress).withdraw(lateFirstBalance);\n\n\n        if(currentIsTesting){\n            revert(\"Testing Is Done, the operation was profitable\");\n        }\n\n    }\n\n\n    function DynamicPathWBNBBridgedSingleStepSwap(uint256 _amount, uint256 _fee, bool test) internal {\n        emit LoanTaken(pairA,_amount,_fee);\n\n        require(dynamicPathArray.length > 0, \"Path array is empty\");\n        // Buy WBNB with loaned BNB\n\n        WBNB(WBNBAddress).deposit{value:_amount, gas:50000}();\n        WBNB(WBNBAddress).approve(routerAddress,_amount);\n\n        // check the balance of WBWB of the contract wallet\n        uint256 earlyFirstBalance = ERC20(WBNBAddress).balanceOf(address(this));\n\n        address[] memory longPath = new address[](dynamicPathArray.length +2);\n        longPath[0]=WBNBAddress;\n        for (uint i=0; i<dynamicPathArray.length; i++){\n            longPath[i+1] = dynamicPathArray[i];\n        }\n        longPath[dynamicPathArray.length+1]=WBNBAddress;\n\n        //Step by step execution\n        uint256[] memory amountOuts = new uint[](longPath.length);\n        amountOuts[0] = _amount;\n        for (uint i=0; i<longPath.length - 1; i++){\n            address[] memory path = new address[](2);\n            path[0]=longPath[i] ;\n            path[1]=longPath[i + 1];\n            uint256[] memory amountsOut = pancakeRouterV2.getAmountsOut(amountOuts[i], path);\n            ERC20(longPath[i]).approve(routerAddress,amountsOut[0]);\n            uint256 slippedAmount = uint256(amountsOut[1]).mul(988).div(1000);\n            pancakeRouterV2.swapExactTokensForTokensSupportingFeeOnTransferTokens(amountsOut[0], 0, path, address(this), block.timestamp+deadline);\n            //uint[] memory afterSwapAmounts = pancakeRouterV2.swapExactTokensForTokens(amountsOut[0], amountsOut[1], path, address(this), block.timestamp+deadline);\n            if(i+1 < longPath.length){\n                uint256 nextBalance = ERC20(longPath[i + 1]).balanceOf(address(this));\n                amountOuts[i+1] = nextBalance < amountsOut[1] ? nextBalance : amountsOut[1];\n            }\n        }\n\n        emit SwapDone(pairA,pairB,pairC,pairAValue,pairBValue,pairCValue);\n\n        // reChecking the balance of WBWB of the contract wallet after swap\n        uint256 lateFirstBalance = ERC20(WBNBAddress).balanceOf(address(this));\n\n        // Profit calculation\n        require(lateFirstBalance > earlyFirstBalance.add(InitGasCost).add(_fee), \"didn't make a profit at all\");\n\n        WBNB(WBNBAddress).withdraw(lateFirstBalance);\n\n\n        if(currentIsTesting){\n            revert(\"Testing Is Done, the operation was profitable\");\n        }\n\n    }\n\n    function DynamicPathWBNBBridgedSwapWithFees(uint256 _amount, uint256 _fee, bool test) internal {\n        emit LoanTaken(pairA,_amount,_fee);\n\n        require(dynamicPathArray.length > 0, \"Path array is empty\");\n        // Buy WBNB with loaned BNB\n\n        WBNB(WBNBAddress).deposit{value:_amount, gas:50000}();\n        WBNB(WBNBAddress).approve(routerAddress,_amount);\n\n        // check the balance of WBWB of the contract wallet\n        uint256 earlyFirstBalance = ERC20(WBNBAddress).balanceOf(address(this));\n\n        address[] memory longPath = new address[](dynamicPathArray.length +2);\n        longPath[0]=WBNBAddress;\n        for (uint i=0; i<dynamicPathArray.length; i++){\n            longPath[i+1] = dynamicPathArray[i];\n        }\n        longPath[dynamicPathArray.length+1]=WBNBAddress;\n\n        // Long path swaps execution\n        pancakeRouterV2.swapExactTokensForTokensSupportingFeeOnTransferTokens(_amount, pairAValue, longPath, address(this), block.timestamp+deadline);\n\n        emit SwapDone(pairA,pairB,pairC,pairAValue,pairBValue,pairCValue);\n\n        // reChecking the balance of WBWB of the contract wallet after swap\n        uint256 lateFirstBalance = ERC20(WBNBAddress).balanceOf(address(this));\n\n        // Profit calculation\n        require(lateFirstBalance > earlyFirstBalance.add(InitGasCost).add(_fee), \"didn't make a profit at all\");\n\n        WBNB(WBNBAddress).withdraw(lateFirstBalance);\n\n\n        if(currentIsTesting){\n            revert(\"Testing Is Done, the operation was profitable\");\n        }\n\n    }\n\n    function WBNBBridgedSwap(uint256 _amount, uint256 _fee, bool test) internal {\n        emit LoanTaken(pairA,_amount,_fee);\n\n        // Buy WBNB with loaned BNB\n\n        WBNB(WBNBAddress).deposit{value:_amount, gas:50000}();\n        WBNB(WBNBAddress).approve(routerAddress,_amount);\n\n        // check the balance of WBWB of the contract wallet\n        uint256 earlyFirstBalance = ERC20(WBNBAddress).balanceOf(address(this));\n\n        address[] memory longPath = new address[](6);\n        longPath[0]=WBNBAddress;\n        longPath[1]=pairA;\n        longPath[2]=pairB;\n        longPath[3]=pairC;\n        longPath[4]=pairA;\n        longPath[5]=WBNBAddress;\n\n        // Long path swaps execution\n        pancakeRouterV2.swapExactTokensForTokens(_amount, pairAValue, longPath, address(this), block.timestamp+deadline);\n\n        emit SwapDone(pairA,pairB,pairC,pairAValue,pairBValue,pairCValue);\n\n        // reChecking the balance of WBWB of the contract wallet after swap\n        uint256 lateFirstBalance = ERC20(WBNBAddress).balanceOf(address(this));\n\n        // Profit calculation\n        require(lateFirstBalance > earlyFirstBalance.add(InitGasCost).add(_fee), \"didn't make a profit at all\");\n\n        WBNB(WBNBAddress).withdraw(lateFirstBalance);\n\n\n        if(currentIsTesting){\n            revert(\"Testing Is Done, the operation was profitable\");\n        }\n\n    }\n\n    function  executeOperation (\n        address _reserve,\n        uint256 _amount,\n        uint256 _fee,\n        bytes calldata _params\n    )\n    external override\n    {\n        require(_amount <= getBalanceInternal(address(this), _reserve), \"Invalid balance, was the flashLoan successful?\");\n\n        emit LoanTaken(pairA,_amount,_fee);\n\n        // Time to transfer the funds back\n        uint totalDebt = _amount.add(_fee);\n        transferFundsBackToPoolInternal(_reserve, totalDebt);\n    }\n\n    function getFlashLoan(address loanToken, uint256 amount, bytes memory data) public onlyOwner {\n        address asset = address(loanToken);\n        ILendingPool lendingPool = ILendingPool(addressesProvider.getLendingPool());\n        lendingPool.flashLoan(address(this), asset, amount, data);\n    }\n\n\n    function executeSwaps(\n        uint256 bnbAmount\n    ) public onlyOwner {\n        getFlashLoan(bnbAddress, bnbAmount, \"\");\n\n    }\n\n\n    function withdraw(address _to, uint256 _amount) onlyOwner public{\n        uint256 balance = address(this).balance;\n        require(_amount < balance, \"you can't withdraw more than your balance\");\n        require(_to != address(0), \"you must assign an address to send to\");\n        (bool success, ) = _to.call{value:_amount}(\"\");\n        require(success, \"Transfer failed. try again later\");\n    }\n\n    function withdrawToken(address _to, uint256 _amount, address _token) onlyOwner public{\n        require(_to != address(0), \"you must assign an address to send to\");\n        require(_token != address(0), \"you must assign a token adddress\");\n        uint256 lateFirstBalance = ERC20(_token).balanceOf(address(this));\n        require(_amount < lateFirstBalance, \"you can't withdraw more than your balance\");\n        bool success = ERC20(_token).transfer(_to, _amount);\n        require(success, \"Transfer failed. try again later\");\n    }\n\n\n    function decode(bytes memory data) public pure returns (uint a, bool b) {\n        assembly {\n            a := mload(\n                add(\n                    data,\n                    32\n                )\n            )\n\n            b := mload(\n                add(\n                    data,\n                    8\n                )\n            )\n\n        }\n    }\n\n\n}\n",
  "sourcePath": "/Users/mac/Documents/smartTradeContract/contracts/FlahLoanTest.sol",
  "compiler": {
    "name": "solc",
    "version": "0.8.0+commit.c7dfd78e.Emscripten.clang"
  },
  "schemaVersion": "3.3.4",
  "updatedAt": "2021-07-01T14:27:10.277Z",
  "networkType": "ethereum",
  "devdoc": {
    "kind": "dev",
    "methods": {
      "owner()": {
        "details": "Returns the address of the current owner."
      },
      "renounceOwnership()": {
        "details": "Leaves the contract without owner. It will not be possible to call `onlyOwner` functions anymore. Can only be called by the current owner. NOTE: Renouncing ownership will leave the contract without an owner, thereby removing any functionality that is only available to the owner."
      },
      "transferOwnership(address)": {
        "details": "Transfers ownership of the contract to a new account (`newOwner`). Can only be called by the current owner."
      }
    },
    "version": 1
  },
  "userdoc": {
    "kind": "user",
    "methods": {},
    "version": 1
  }
}