{
  "contractName": "smartTrade",
  "abi": [
    {
      "inputs": [
        {
          "internalType": "address",
          "name": "mainBNBAddress",
          "type": "address"
        },
        {
          "internalType": "address",
          "name": "mainWBNBAddress",
          "type": "address"
        }
      ],
      "stateMutability": "nonpayable",
      "type": "constructor"
    },
    {
      "anonymous": false,
      "inputs": [
        {
          "indexed": false,
          "internalType": "address",
          "name": "token",
          "type": "address"
        },
        {
          "indexed": false,
          "internalType": "uint256",
          "name": "value",
          "type": "uint256"
        },
        {
          "indexed": false,
          "internalType": "uint256",
          "name": "fee",
          "type": "uint256"
        }
      ],
      "name": "LoanPayed",
      "type": "event"
    },
    {
      "anonymous": false,
      "inputs": [
        {
          "indexed": false,
          "internalType": "address",
          "name": "token",
          "type": "address"
        },
        {
          "indexed": false,
          "internalType": "uint256",
          "name": "value",
          "type": "uint256"
        },
        {
          "indexed": false,
          "internalType": "uint256",
          "name": "fee",
          "type": "uint256"
        }
      ],
      "name": "LoanTaken",
      "type": "event"
    },
    {
      "anonymous": false,
      "inputs": [
        {
          "indexed": true,
          "internalType": "address",
          "name": "previousOwner",
          "type": "address"
        },
        {
          "indexed": true,
          "internalType": "address",
          "name": "newOwner",
          "type": "address"
        }
      ],
      "name": "OwnershipTransferred",
      "type": "event"
    },
    {
      "anonymous": false,
      "inputs": [
        {
          "indexed": true,
          "internalType": "address",
          "name": "a",
          "type": "address"
        },
        {
          "indexed": true,
          "internalType": "address",
          "name": "b",
          "type": "address"
        },
        {
          "indexed": true,
          "internalType": "address",
          "name": "c",
          "type": "address"
        },
        {
          "indexed": false,
          "internalType": "uint256",
          "name": "am",
          "type": "uint256"
        },
        {
          "indexed": false,
          "internalType": "uint256",
          "name": "bm",
          "type": "uint256"
        },
        {
          "indexed": false,
          "internalType": "uint256",
          "name": "cm",
          "type": "uint256"
        }
      ],
      "name": "SwapDone",
      "type": "event"
    },
    {
      "stateMutability": "payable",
      "type": "fallback"
    },
    {
      "inputs": [],
      "name": "BNB_ADDRESS",
      "outputs": [
        {
          "internalType": "address",
          "name": "",
          "type": "address"
        }
      ],
      "stateMutability": "view",
      "type": "function"
    },
    {
      "inputs": [],
      "name": "addressesProvider",
      "outputs": [
        {
          "internalType": "contract ILendingPoolAddressesProvider",
          "name": "",
          "type": "address"
        }
      ],
      "stateMutability": "view",
      "type": "function"
    },
    {
      "inputs": [],
      "name": "owner",
      "outputs": [
        {
          "internalType": "address",
          "name": "",
          "type": "address"
        }
      ],
      "stateMutability": "view",
      "type": "function"
    },
    {
      "inputs": [],
      "name": "renounceOwnership",
      "outputs": [],
      "stateMutability": "nonpayable",
      "type": "function"
    },
    {
      "inputs": [
        {
          "internalType": "address",
          "name": "newOwner",
          "type": "address"
        }
      ],
      "name": "transferOwnership",
      "outputs": [],
      "stateMutability": "nonpayable",
      "type": "function"
    },
    {
      "inputs": [
        {
          "internalType": "address",
          "name": "_reserve",
          "type": "address"
        },
        {
          "internalType": "uint256",
          "name": "_amount",
          "type": "uint256"
        },
        {
          "internalType": "uint256",
          "name": "_fee",
          "type": "uint256"
        },
        {
          "internalType": "bytes",
          "name": "_params",
          "type": "bytes"
        }
      ],
      "name": "executeOperation",
      "outputs": [],
      "stateMutability": "nonpayable",
      "type": "function"
    },
    {
      "inputs": [
        {
          "internalType": "address",
          "name": "loanToken",
          "type": "address"
        },
        {
          "internalType": "uint256",
          "name": "amount",
          "type": "uint256"
        },
        {
          "internalType": "bytes",
          "name": "data",
          "type": "bytes"
        }
      ],
      "name": "getFlashLoan",
      "outputs": [],
      "stateMutability": "nonpayable",
      "type": "function"
    },
    {
      "inputs": [
        {
          "internalType": "uint256",
          "name": "bnbAmount",
          "type": "uint256"
        },
        {
          "internalType": "address",
          "name": "pairOne",
          "type": "address"
        },
        {
          "internalType": "uint256",
          "name": "pairOneAmount",
          "type": "uint256"
        },
        {
          "internalType": "address",
          "name": "pairTwo",
          "type": "address"
        },
        {
          "internalType": "address",
          "name": "pairThree",
          "type": "address"
        },
        {
          "internalType": "uint256",
          "name": "initialGasCost",
          "type": "uint256"
        },
        {
          "internalType": "uint256",
          "name": "minimumProfit",
          "type": "uint256"
        },
        {
          "internalType": "uint256",
          "name": "swapType",
          "type": "uint256"
        },
        {
          "internalType": "bool",
          "name": "test",
          "type": "bool"
        },
        {
          "internalType": "address[]",
          "name": "dynamicPath",
          "type": "address[]"
        }
      ],
      "name": "executeSwaps",
      "outputs": [],
      "stateMutability": "nonpayable",
      "type": "function"
    },
    {
      "inputs": [
        {
          "internalType": "address",
          "name": "_to",
          "type": "address"
        },
        {
          "internalType": "uint256",
          "name": "_amount",
          "type": "uint256"
        }
      ],
      "name": "withdraw",
      "outputs": [],
      "stateMutability": "nonpayable",
      "type": "function"
    },
    {
      "inputs": [
        {
          "internalType": "address",
          "name": "_to",
          "type": "address"
        },
        {
          "internalType": "uint256",
          "name": "_amount",
          "type": "uint256"
        },
        {
          "internalType": "address",
          "name": "_token",
          "type": "address"
        }
      ],
      "name": "withdrawToken",
      "outputs": [],
      "stateMutability": "nonpayable",
      "type": "function"
    },
    {
      "inputs": [
        {
          "internalType": "bytes",
          "name": "data",
          "type": "bytes"
        }
      ],
      "name": "decode",
      "outputs": [
        {
          "internalType": "uint256",
          "name": "a",
          "type": "uint256"
        },
        {
          "internalType": "bool",
          "name": "b",
          "type": "bool"
        }
      ],
      "stateMutability": "pure",
      "type": "function"
    }
  ],
  "bytecode": "0x60806040527310ed43c718714eb63d5aa57b78b54704e256024e600260006101000a81548173ffffffffffffffffffffffffffffffffffffffff021916908373ffffffffffffffffffffffffffffffffffffffff16021790555060058055600260009054906101000a900473ffffffffffffffffffffffffffffffffffffffff16600f60016101000a81548173ffffffffffffffffffffffffffffffffffffffff021916908373ffffffffffffffffffffffffffffffffffffffff160217905550348015620000cd57600080fd5b506040516200625e3803806200625e8339818101604052810190620000f39190620002a3565b73cc0479a98cc66e85806d0cd7970d6e07f77fd63360006200011a6200028460201b60201c565b9050806000806101000a81548173ffffffffffffffffffffffffffffffffffffffff021916908373ffffffffffffffffffffffffffffffffffffffff1602179055508073ffffffffffffffffffffffffffffffffffffffff16600073ffffffffffffffffffffffffffffffffffffffff167f8be0079c531659141344cd1fd0a4f28419497f9722a3daafe3b4186f6b6457e060405160405180910390a35080600160006101000a81548173ffffffffffffffffffffffffffffffffffffffff021916908373ffffffffffffffffffffffffffffffffffffffff1602179055505081600360006101000a81548173ffffffffffffffffffffffffffffffffffffffff021916908373ffffffffffffffffffffffffffffffffffffffff16021790555080600460006101000a81548173ffffffffffffffffffffffffffffffffffffffff021916908373ffffffffffffffffffffffffffffffffffffffff160217905550505062000332565b600033905090565b6000815190506200029d8162000318565b92915050565b60008060408385031215620002b757600080fd5b6000620002c7858286016200028c565b9250506020620002da858286016200028c565b9150509250929050565b6000620002f182620002f8565b9050919050565b600073ffffffffffffffffffffffffffffffffffffffff82169050919050565b6200032381620002e4565b81146200032f57600080fd5b50565b615f1c80620003426000396000f3fe6080604052600436106100a05760003560e01c8063cfc0189511610064578063cfc0189514610164578063d60747841461018d578063e5c5e9a3146101b6578063ee872558146101f4578063f2fde38b1461021d578063f3fef3a314610246576100a1565b80633ccdbb28146100a357806370de629f146100cc578063715018a6146100f75780638da5cb5b1461010e578063c72c4d1014610139576100a1565b5b005b3480156100af57600080fd5b506100ca60048036038101906100c59190614cef565b61026f565b005b3480156100d857600080fd5b506100e1610572565b6040516100ee9190615649565b60405180910390f35b34801561010357600080fd5b5061010c61058a565b005b34801561011a57600080fd5b506101236106c4565b6040516101309190615649565b60405180910390f35b34801561014557600080fd5b5061014e6106ed565b60405161015b9190615710565b60405180910390f35b34801561017057600080fd5b5061018b60048036038101906101869190614ef9565b610713565b005b34801561019957600080fd5b506101b460048036038101906101af9190614d3e565b610924565b005b3480156101c257600080fd5b506101dd60048036038101906101d89190614e8f565b610ac1565b6040516101eb929190615938565b60405180910390f35b34801561020057600080fd5b5061021b60048036038101906102169190614da5565b610ad7565b005b34801561022957600080fd5b50610244600480360381019061023f9190614c38565b610cdb565b005b34801561025257600080fd5b5061026d60048036038101906102689190614cb3565b610e84565b005b610277611069565b73ffffffffffffffffffffffffffffffffffffffff166102956106c4565b73ffffffffffffffffffffffffffffffffffffffff16146102eb576040517f08c379a00000000000000000000000000000000000000000000000000000000081526004016102e29061580d565b60405180910390fd5b600073ffffffffffffffffffffffffffffffffffffffff168373ffffffffffffffffffffffffffffffffffffffff16141561035b576040517f08c379a0000000000000000000000000000000000000000000000000000000008152600401610352906158cd565b60405180910390fd5b600073ffffffffffffffffffffffffffffffffffffffff168173ffffffffffffffffffffffffffffffffffffffff1614156103cb576040517f08c379a00000000000000000000000000000000000000000000000000000000081526004016103c2906158ad565b60405180910390fd5b60008173ffffffffffffffffffffffffffffffffffffffff166370a08231306040518263ffffffff1660e01b81526004016104069190615649565b60206040518083038186803b15801561041e57600080fd5b505afa158015610432573d6000803e3d6000fd5b505050506040513d601f19601f820116820180604052508101906104569190614ed0565b905080831061049a576040517f08c379a00000000000000000000000000000000000000000000000000000000081526004016104919061588d565b60405180910390fd5b60008273ffffffffffffffffffffffffffffffffffffffff1663a9059cbb86866040518363ffffffff1660e01b81526004016104d79291906156b0565b602060405180830381600087803b1580156104f157600080fd5b505af1158015610505573d6000803e3d6000fd5b505050506040513d601f19601f820116820180604052508101906105299190614e66565b90508061056b576040517f08c379a0000000000000000000000000000000000000000000000000000000008152600401610562906157ad565b60405180910390fd5b5050505050565b73eeeeeeeeeeeeeeeeeeeeeeeeeeeeeeeeeeeeeeee81565b610592611069565b73ffffffffffffffffffffffffffffffffffffffff166105b06106c4565b73ffffffffffffffffffffffffffffffffffffffff1614610606576040517f08c379a00000000000000000000000000000000000000000000000000000000081526004016105fd9061580d565b60405180910390fd5b600073ffffffffffffffffffffffffffffffffffffffff1660008054906101000a900473ffffffffffffffffffffffffffffffffffffffff1673ffffffffffffffffffffffffffffffffffffffff167f8be0079c531659141344cd1fd0a4f28419497f9722a3daafe3b4186f6b6457e060405160405180910390a360008060006101000a81548173ffffffffffffffffffffffffffffffffffffffff021916908373ffffffffffffffffffffffffffffffffffffffff160217905550565b60008060009054906101000a900473ffffffffffffffffffffffffffffffffffffffff16905090565b600160009054906101000a900473ffffffffffffffffffffffffffffffffffffffff1681565b61071b611069565b73ffffffffffffffffffffffffffffffffffffffff166107396106c4565b73ffffffffffffffffffffffffffffffffffffffff161461078f576040517f08c379a00000000000000000000000000000000000000000000000000000000081526004016107869061580d565b60405180910390fd5b88600660006101000a81548173ffffffffffffffffffffffffffffffffffffffff021916908373ffffffffffffffffffffffffffffffffffffffff16021790555086600760006101000a81548173ffffffffffffffffffffffffffffffffffffffff021916908373ffffffffffffffffffffffffffffffffffffffff16021790555085600860006101000a81548173ffffffffffffffffffffffffffffffffffffffff021916908373ffffffffffffffffffffffffffffffffffffffff1602179055508760098190555084600c8190555080600e9080519060200190610876929190614920565b5081600f60006101000a81548160ff0219169083151502179055506000600284146108c557600360009054906101000a900473ffffffffffffffffffffffffffffffffffffffff1690506108eb565b600660009054906101000a900473ffffffffffffffffffffffffffffffffffffffff1690505b610917818c868660405160200161090392919061561d565b604051602081830303815290604052610924565b5050505050505050505050565b61092c611069565b73ffffffffffffffffffffffffffffffffffffffff1661094a6106c4565b73ffffffffffffffffffffffffffffffffffffffff16146109a0576040517f08c379a00000000000000000000000000000000000000000000000000000000081526004016109979061580d565b60405180910390fd5b60008390506000600160009054906101000a900473ffffffffffffffffffffffffffffffffffffffff1673ffffffffffffffffffffffffffffffffffffffff16630261bf8b6040518163ffffffff1660e01b815260040160206040518083038186803b158015610a0f57600080fd5b505afa158015610a23573d6000803e3d6000fd5b505050506040513d601f19601f82011682018060405250810190610a479190614c61565b90508073ffffffffffffffffffffffffffffffffffffffff16635cffe9de308487876040518563ffffffff1660e01b8152600401610a889493929190615664565b600060405180830381600087803b158015610aa257600080fd5b505af1158015610ab6573d6000803e3d6000fd5b505050505050505050565b6000806020830151915060088301519050915091565b610ae13086611071565b841115610b23576040517f08c379a0000000000000000000000000000000000000000000000000000000008152600401610b1a906157cd565b60405180910390fd5b7e6b9bb4766cf5ab74b890df959e4fad0e54b1c3885e49c9541d36253a6e39e6600660009054906101000a900473ffffffffffffffffffffffffffffffffffffffff168585604051610b77939291906156d9565b60405180910390a1600080610bcf84848080601f016020809104026020016040519081016040528093929190818152602001838380828437600081840152601f19601f82011690508083019250505050505050610ac1565b915091506001821415610bec57610be786868361116c565b610c53565b6002821415610c0857610c03600d54878784611b60565b610c52565b6003821415610c2157610c1c868683612203565b610c51565b6004821415610c3a57610c35868683612b0b565b610c50565b6005821415610c4f57610c4e8686836133ed565b5b5b5b5b5b6000610c68868861444b90919063ffffffff16565b9050610c748882614461565b7f43d34be1e05ce67f48950f19aa5ba5496d819852b1665a3fef1febe70ec769f0600660009054906101000a900473ffffffffffffffffffffffffffffffffffffffff168888604051610cc9939291906156d9565b60405180910390a15050505050505050565b610ce3611069565b73ffffffffffffffffffffffffffffffffffffffff16610d016106c4565b73ffffffffffffffffffffffffffffffffffffffff1614610d57576040517f08c379a0000000000000000000000000000000000000000000000000000000008152600401610d4e9061580d565b60405180910390fd5b600073ffffffffffffffffffffffffffffffffffffffff168173ffffffffffffffffffffffffffffffffffffffff161415610dc7576040517f08c379a0000000000000000000000000000000000000000000000000000000008152600401610dbe9061574d565b60405180910390fd5b8073ffffffffffffffffffffffffffffffffffffffff1660008054906101000a900473ffffffffffffffffffffffffffffffffffffffff1673ffffffffffffffffffffffffffffffffffffffff167f8be0079c531659141344cd1fd0a4f28419497f9722a3daafe3b4186f6b6457e060405160405180910390a3806000806101000a81548173ffffffffffffffffffffffffffffffffffffffff021916908373ffffffffffffffffffffffffffffffffffffffff16021790555050565b610e8c611069565b73ffffffffffffffffffffffffffffffffffffffff16610eaa6106c4565b73ffffffffffffffffffffffffffffffffffffffff1614610f00576040517f08c379a0000000000000000000000000000000000000000000000000000000008152600401610ef79061580d565b60405180910390fd5b6000479050808210610f47576040517f08c379a0000000000000000000000000000000000000000000000000000000008152600401610f3e9061588d565b60405180910390fd5b600073ffffffffffffffffffffffffffffffffffffffff168373ffffffffffffffffffffffffffffffffffffffff161415610fb7576040517f08c379a0000000000000000000000000000000000000000000000000000000008152600401610fae906158cd565b60405180910390fd5b60008373ffffffffffffffffffffffffffffffffffffffff1683604051610fdd90615608565b60006040518083038185875af1925050503d806000811461101a576040519150601f19603f3d011682016040523d82523d6000602084013e61101f565b606091505b5050905080611063576040517f08c379a000000000000000000000000000000000000000000000000000000000815260040161105a906157ad565b60405180910390fd5b50505050565b600033905090565b600073eeeeeeeeeeeeeeeeeeeeeeeeeeeeeeeeeeeeeeee73ffffffffffffffffffffffffffffffffffffffff168273ffffffffffffffffffffffffffffffffffffffff1614156110da578273ffffffffffffffffffffffffffffffffffffffff16319050611166565b8173ffffffffffffffffffffffffffffffffffffffff166370a08231846040518263ffffffff1660e01b81526004016111139190615649565b60206040518083038186803b15801561112b57600080fd5b505afa15801561113f573d6000803e3d6000fd5b505050506040513d601f19601f820116820180604052508101906111639190614ed0565b90505b92915050565b7e6b9bb4766cf5ab74b890df959e4fad0e54b1c3885e49c9541d36253a6e39e6600660009054906101000a900473ffffffffffffffffffffffffffffffffffffffff1684846040516111c0939291906156d9565b60405180910390a1600460009054906101000a900473ffffffffffffffffffffffffffffffffffffffff1673ffffffffffffffffffffffffffffffffffffffff1663d0e30db08461c350906040518363ffffffff1660e01b81526004016000604051808303818589803b15801561123657600080fd5b5088f115801561124a573d6000803e3d6000fd5b505050505050600460009054906101000a900473ffffffffffffffffffffffffffffffffffffffff1673ffffffffffffffffffffffffffffffffffffffff1663095ea7b3600260009054906101000a900473ffffffffffffffffffffffffffffffffffffffff16856040518363ffffffff1660e01b81526004016112cf9291906156b0565b600060405180830381600087803b1580156112e957600080fd5b505af11580156112fd573d6000803e3d6000fd5b505050506000600460009054906101000a900473ffffffffffffffffffffffffffffffffffffffff1673ffffffffffffffffffffffffffffffffffffffff166370a08231306040518263ffffffff1660e01b815260040161135e9190615649565b60206040518083038186803b15801561137657600080fd5b505afa15801561138a573d6000803e3d6000fd5b505050506040513d601f19601f820116820180604052508101906113ae9190614ed0565b90506000600667ffffffffffffffff8111156113f3577f4e487b7100000000000000000000000000000000000000000000000000000000600052604160045260246000fd5b6040519080825280602002602001820160405280156114215781602001602082028036833780820191505090505b509050600460009054906101000a900473ffffffffffffffffffffffffffffffffffffffff1681600081518110611481577f4e487b7100000000000000000000000000000000000000000000000000000000600052603260045260246000fd5b602002602001019073ffffffffffffffffffffffffffffffffffffffff16908173ffffffffffffffffffffffffffffffffffffffff1681525050600660009054906101000a900473ffffffffffffffffffffffffffffffffffffffff1681600181518110611518577f4e487b7100000000000000000000000000000000000000000000000000000000600052603260045260246000fd5b602002602001019073ffffffffffffffffffffffffffffffffffffffff16908173ffffffffffffffffffffffffffffffffffffffff1681525050600760009054906101000a900473ffffffffffffffffffffffffffffffffffffffff16816002815181106115af577f4e487b7100000000000000000000000000000000000000000000000000000000600052603260045260246000fd5b602002602001019073ffffffffffffffffffffffffffffffffffffffff16908173ffffffffffffffffffffffffffffffffffffffff1681525050600860009054906101000a900473ffffffffffffffffffffffffffffffffffffffff1681600381518110611646577f4e487b7100000000000000000000000000000000000000000000000000000000600052603260045260246000fd5b602002602001019073ffffffffffffffffffffffffffffffffffffffff16908173ffffffffffffffffffffffffffffffffffffffff1681525050600660009054906101000a900473ffffffffffffffffffffffffffffffffffffffff16816004815181106116dd577f4e487b7100000000000000000000000000000000000000000000000000000000600052603260045260246000fd5b602002602001019073ffffffffffffffffffffffffffffffffffffffff16908173ffffffffffffffffffffffffffffffffffffffff1681525050600460009054906101000a900473ffffffffffffffffffffffffffffffffffffffff1681600581518110611774577f4e487b7100000000000000000000000000000000000000000000000000000000600052603260045260246000fd5b602002602001019073ffffffffffffffffffffffffffffffffffffffff16908173ffffffffffffffffffffffffffffffffffffffff1681525050600f60019054906101000a900473ffffffffffffffffffffffffffffffffffffffff1673ffffffffffffffffffffffffffffffffffffffff166338ed1739866009548430600554426118009190615b81565b6040518663ffffffff1660e01b81526004016118209594939291906159bb565b600060405180830381600087803b15801561183a57600080fd5b505af115801561184e573d6000803e3d6000fd5b505050506040513d6000823e3d601f19601f820116820180604052508101906118779190614e25565b50600860009054906101000a900473ffffffffffffffffffffffffffffffffffffffff1673ffffffffffffffffffffffffffffffffffffffff16600760009054906101000a900473ffffffffffffffffffffffffffffffffffffffff1673ffffffffffffffffffffffffffffffffffffffff16600660009054906101000a900473ffffffffffffffffffffffffffffffffffffffff1673ffffffffffffffffffffffffffffffffffffffff167feed2342a7ad4e865a58253767b0e63b75428f5cf969db8e857535112270f706c600954600a54600b5460405161195c93929190615a15565b60405180910390a46000600460009054906101000a900473ffffffffffffffffffffffffffffffffffffffff1673ffffffffffffffffffffffffffffffffffffffff166370a08231306040518263ffffffff1660e01b81526004016119c19190615649565b60206040518083038186803b1580156119d957600080fd5b505afa1580156119ed573d6000803e3d6000fd5b505050506040513d601f19601f82011682018060405250810190611a119190614ed0565b9050611a3a85611a2c600c548661444b90919063ffffffff16565b61444b90919063ffffffff16565b8111611a7b576040517f08c379a0000000000000000000000000000000000000000000000000000000008152600401611a729061578d565b60405180910390fd5b600460009054906101000a900473ffffffffffffffffffffffffffffffffffffffff1673ffffffffffffffffffffffffffffffffffffffff16632e1a7d4d826040518263ffffffff1660e01b8152600401611ad691906158ed565b600060405180830381600087803b158015611af057600080fd5b505af1158015611b04573d6000803e3d6000fd5b50505050600f60009054906101000a900460ff1615611b58576040517f08c379a0000000000000000000000000000000000000000000000000000000008152600401611b4f906157ed565b60405180910390fd5b505050505050565b6000600660009054906101000a900473ffffffffffffffffffffffffffffffffffffffff1673ffffffffffffffffffffffffffffffffffffffff166370a08231306040518263ffffffff1660e01b8152600401611bbd9190615649565b60206040518083038186803b158015611bd557600080fd5b505afa158015611be9573d6000803e3d6000fd5b505050506040513d601f19601f82011682018060405250810190611c0d9190614ed0565b90506000600467ffffffffffffffff811115611c52577f4e487b7100000000000000000000000000000000000000000000000000000000600052604160045260246000fd5b604051908082528060200260200182016040528015611c805781602001602082028036833780820191505090505b509050600660009054906101000a900473ffffffffffffffffffffffffffffffffffffffff1681600081518110611ce0577f4e487b7100000000000000000000000000000000000000000000000000000000600052603260045260246000fd5b602002602001019073ffffffffffffffffffffffffffffffffffffffff16908173ffffffffffffffffffffffffffffffffffffffff1681525050600760009054906101000a900473ffffffffffffffffffffffffffffffffffffffff1681600181518110611d77577f4e487b7100000000000000000000000000000000000000000000000000000000600052603260045260246000fd5b602002602001019073ffffffffffffffffffffffffffffffffffffffff16908173ffffffffffffffffffffffffffffffffffffffff1681525050600860009054906101000a900473ffffffffffffffffffffffffffffffffffffffff1681600281518110611e0e577f4e487b7100000000000000000000000000000000000000000000000000000000600052603260045260246000fd5b602002602001019073ffffffffffffffffffffffffffffffffffffffff16908173ffffffffffffffffffffffffffffffffffffffff1681525050600660009054906101000a900473ffffffffffffffffffffffffffffffffffffffff1681600381518110611ea5577f4e487b7100000000000000000000000000000000000000000000000000000000600052603260045260246000fd5b602002602001019073ffffffffffffffffffffffffffffffffffffffff16908173ffffffffffffffffffffffffffffffffffffffff1681525050600f60019054906101000a900473ffffffffffffffffffffffffffffffffffffffff1673ffffffffffffffffffffffffffffffffffffffff166338ed173986600954843060055442611f319190615b81565b6040518663ffffffff1660e01b8152600401611f519594939291906159bb565b600060405180830381600087803b158015611f6b57600080fd5b505af1158015611f7f573d6000803e3d6000fd5b505050506040513d6000823e3d601f19601f82011682018060405250810190611fa89190614e25565b50600860009054906101000a900473ffffffffffffffffffffffffffffffffffffffff1673ffffffffffffffffffffffffffffffffffffffff16600760009054906101000a900473ffffffffffffffffffffffffffffffffffffffff1673ffffffffffffffffffffffffffffffffffffffff16600660009054906101000a900473ffffffffffffffffffffffffffffffffffffffff1673ffffffffffffffffffffffffffffffffffffffff167feed2342a7ad4e865a58253767b0e63b75428f5cf969db8e857535112270f706c600954600a54600b5460405161208d93929190615a15565b60405180910390a46000600660009054906101000a900473ffffffffffffffffffffffffffffffffffffffff1673ffffffffffffffffffffffffffffffffffffffff166370a08231306040518263ffffffff1660e01b81526004016120f29190615649565b60206040518083038186803b15801561210a57600080fd5b505afa15801561211e573d6000803e3d6000fd5b505050506040513d601f19601f820116820180604052508101906121429190614ed0565b90506121698561215b898661444b90919063ffffffff16565b61444b90919063ffffffff16565b81116121aa576040517f08c379a00000000000000000000000000000000000000000000000000000000081526004016121a19061578d565b60405180910390fd5b600f60009054906101000a900460ff16156121fa576040517f08c379a00000000000000000000000000000000000000000000000000000000081526004016121f1906157ed565b60405180910390fd5b50505050505050565b7e6b9bb4766cf5ab74b890df959e4fad0e54b1c3885e49c9541d36253a6e39e6600660009054906101000a900473ffffffffffffffffffffffffffffffffffffffff168484604051612257939291906156d9565b60405180910390a16000600e80549050116122a7576040517f08c379a000000000000000000000000000000000000000000000000000000000815260040161229e9061582d565b60405180910390fd5b600460009054906101000a900473ffffffffffffffffffffffffffffffffffffffff1673ffffffffffffffffffffffffffffffffffffffff1663d0e30db08461c350906040518363ffffffff1660e01b81526004016000604051808303818589803b15801561231557600080fd5b5088f1158015612329573d6000803e3d6000fd5b505050505050600460009054906101000a900473ffffffffffffffffffffffffffffffffffffffff1673ffffffffffffffffffffffffffffffffffffffff1663095ea7b3600260009054906101000a900473ffffffffffffffffffffffffffffffffffffffff16856040518363ffffffff1660e01b81526004016123ae9291906156b0565b600060405180830381600087803b1580156123c857600080fd5b505af11580156123dc573d6000803e3d6000fd5b505050506000600460009054906101000a900473ffffffffffffffffffffffffffffffffffffffff1673ffffffffffffffffffffffffffffffffffffffff166370a08231306040518263ffffffff1660e01b815260040161243d9190615649565b60206040518083038186803b15801561245557600080fd5b505afa158015612469573d6000803e3d6000fd5b505050506040513d601f19601f8201168201806040525081019061248d9190614ed0565b905060006002600e805490506124a39190615b81565b67ffffffffffffffff8111156124e2577f4e487b7100000000000000000000000000000000000000000000000000000000600052604160045260246000fd5b6040519080825280602002602001820160405280156125105781602001602082028036833780820191505090505b509050600460009054906101000a900473ffffffffffffffffffffffffffffffffffffffff1681600081518110612570577f4e487b7100000000000000000000000000000000000000000000000000000000600052603260045260246000fd5b602002602001019073ffffffffffffffffffffffffffffffffffffffff16908173ffffffffffffffffffffffffffffffffffffffff168152505060005b600e805490508110156126b157600e81815481106125f4577f4e487b7100000000000000000000000000000000000000000000000000000000600052603260045260246000fd5b9060005260206000200160009054906101000a900473ffffffffffffffffffffffffffffffffffffffff168260018361262d9190615b81565b81518110612664577f4e487b7100000000000000000000000000000000000000000000000000000000600052603260045260246000fd5b602002602001019073ffffffffffffffffffffffffffffffffffffffff16908173ffffffffffffffffffffffffffffffffffffffff168152505080806126a990615d68565b9150506125ad565b50600460009054906101000a900473ffffffffffffffffffffffffffffffffffffffff16816001600e805490506126e89190615b81565b8151811061271f577f4e487b7100000000000000000000000000000000000000000000000000000000600052603260045260246000fd5b602002602001019073ffffffffffffffffffffffffffffffffffffffff16908173ffffffffffffffffffffffffffffffffffffffff1681525050600f60019054906101000a900473ffffffffffffffffffffffffffffffffffffffff1673ffffffffffffffffffffffffffffffffffffffff166338ed1739866009548430600554426127ab9190615b81565b6040518663ffffffff1660e01b81526004016127cb9594939291906159bb565b600060405180830381600087803b1580156127e557600080fd5b505af11580156127f9573d6000803e3d6000fd5b505050506040513d6000823e3d601f19601f820116820180604052508101906128229190614e25565b50600860009054906101000a900473ffffffffffffffffffffffffffffffffffffffff1673ffffffffffffffffffffffffffffffffffffffff16600760009054906101000a900473ffffffffffffffffffffffffffffffffffffffff1673ffffffffffffffffffffffffffffffffffffffff16600660009054906101000a900473ffffffffffffffffffffffffffffffffffffffff1673ffffffffffffffffffffffffffffffffffffffff167feed2342a7ad4e865a58253767b0e63b75428f5cf969db8e857535112270f706c600954600a54600b5460405161290793929190615a15565b60405180910390a46000600460009054906101000a900473ffffffffffffffffffffffffffffffffffffffff1673ffffffffffffffffffffffffffffffffffffffff166370a08231306040518263ffffffff1660e01b815260040161296c9190615649565b60206040518083038186803b15801561298457600080fd5b505afa158015612998573d6000803e3d6000fd5b505050506040513d601f19601f820116820180604052508101906129bc9190614ed0565b90506129e5856129d7600c548661444b90919063ffffffff16565b61444b90919063ffffffff16565b8111612a26576040517f08c379a0000000000000000000000000000000000000000000000000000000008152600401612a1d9061578d565b60405180910390fd5b600460009054906101000a900473ffffffffffffffffffffffffffffffffffffffff1673ffffffffffffffffffffffffffffffffffffffff16632e1a7d4d826040518263ffffffff1660e01b8152600401612a8191906158ed565b600060405180830381600087803b158015612a9b57600080fd5b505af1158015612aaf573d6000803e3d6000fd5b50505050600f60009054906101000a900460ff1615612b03576040517f08c379a0000000000000000000000000000000000000000000000000000000008152600401612afa906157ed565b60405180910390fd5b505050505050565b7e6b9bb4766cf5ab74b890df959e4fad0e54b1c3885e49c9541d36253a6e39e6600660009054906101000a900473ffffffffffffffffffffffffffffffffffffffff168484604051612b5f939291906156d9565b60405180910390a16000600e8054905011612baf576040517f08c379a0000000000000000000000000000000000000000000000000000000008152600401612ba69061582d565b60405180910390fd5b600460009054906101000a900473ffffffffffffffffffffffffffffffffffffffff1673ffffffffffffffffffffffffffffffffffffffff1663d0e30db08461c350906040518363ffffffff1660e01b81526004016000604051808303818589803b158015612c1d57600080fd5b5088f1158015612c31573d6000803e3d6000fd5b505050505050600460009054906101000a900473ffffffffffffffffffffffffffffffffffffffff1673ffffffffffffffffffffffffffffffffffffffff1663095ea7b3600260009054906101000a900473ffffffffffffffffffffffffffffffffffffffff16856040518363ffffffff1660e01b8152600401612cb69291906156b0565b600060405180830381600087803b158015612cd057600080fd5b505af1158015612ce4573d6000803e3d6000fd5b505050506000600460009054906101000a900473ffffffffffffffffffffffffffffffffffffffff1673ffffffffffffffffffffffffffffffffffffffff166370a08231306040518263ffffffff1660e01b8152600401612d459190615649565b60206040518083038186803b158015612d5d57600080fd5b505afa158015612d71573d6000803e3d6000fd5b505050506040513d601f19601f82011682018060405250810190612d959190614ed0565b905060006002600e80549050612dab9190615b81565b67ffffffffffffffff811115612dea577f4e487b7100000000000000000000000000000000000000000000000000000000600052604160045260246000fd5b604051908082528060200260200182016040528015612e185781602001602082028036833780820191505090505b509050600460009054906101000a900473ffffffffffffffffffffffffffffffffffffffff1681600081518110612e78577f4e487b7100000000000000000000000000000000000000000000000000000000600052603260045260246000fd5b602002602001019073ffffffffffffffffffffffffffffffffffffffff16908173ffffffffffffffffffffffffffffffffffffffff168152505060005b600e80549050811015612fb957600e8181548110612efc577f4e487b7100000000000000000000000000000000000000000000000000000000600052603260045260246000fd5b9060005260206000200160009054906101000a900473ffffffffffffffffffffffffffffffffffffffff1682600183612f359190615b81565b81518110612f6c577f4e487b7100000000000000000000000000000000000000000000000000000000600052603260045260246000fd5b602002602001019073ffffffffffffffffffffffffffffffffffffffff16908173ffffffffffffffffffffffffffffffffffffffff16815250508080612fb190615d68565b915050612eb5565b50600460009054906101000a900473ffffffffffffffffffffffffffffffffffffffff16816001600e80549050612ff09190615b81565b81518110613027577f4e487b7100000000000000000000000000000000000000000000000000000000600052603260045260246000fd5b602002602001019073ffffffffffffffffffffffffffffffffffffffff16908173ffffffffffffffffffffffffffffffffffffffff1681525050600f60019054906101000a900473ffffffffffffffffffffffffffffffffffffffff1673ffffffffffffffffffffffffffffffffffffffff16635c11d795866009548430600554426130b39190615b81565b6040518663ffffffff1660e01b81526004016130d39594939291906159bb565b600060405180830381600087803b1580156130ed57600080fd5b505af1158015613101573d6000803e3d6000fd5b50505050600860009054906101000a900473ffffffffffffffffffffffffffffffffffffffff1673ffffffffffffffffffffffffffffffffffffffff16600760009054906101000a900473ffffffffffffffffffffffffffffffffffffffff1673ffffffffffffffffffffffffffffffffffffffff16600660009054906101000a900473ffffffffffffffffffffffffffffffffffffffff1673ffffffffffffffffffffffffffffffffffffffff167feed2342a7ad4e865a58253767b0e63b75428f5cf969db8e857535112270f706c600954600a54600b546040516131e993929190615a15565b60405180910390a46000600460009054906101000a900473ffffffffffffffffffffffffffffffffffffffff1673ffffffffffffffffffffffffffffffffffffffff166370a08231306040518263ffffffff1660e01b815260040161324e9190615649565b60206040518083038186803b15801561326657600080fd5b505afa15801561327a573d6000803e3d6000fd5b505050506040513d601f19601f8201168201806040525081019061329e9190614ed0565b90506132c7856132b9600c548661444b90919063ffffffff16565b61444b90919063ffffffff16565b8111613308576040517f08c379a00000000000000000000000000000000000000000000000000000000081526004016132ff9061578d565b60405180910390fd5b600460009054906101000a900473ffffffffffffffffffffffffffffffffffffffff1673ffffffffffffffffffffffffffffffffffffffff16632e1a7d4d826040518263ffffffff1660e01b815260040161336391906158ed565b600060405180830381600087803b15801561337d57600080fd5b505af1158015613391573d6000803e3d6000fd5b50505050600f60009054906101000a900460ff16156133e5576040517f08c379a00000000000000000000000000000000000000000000000000000000081526004016133dc906157ed565b60405180910390fd5b505050505050565b7e6b9bb4766cf5ab74b890df959e4fad0e54b1c3885e49c9541d36253a6e39e6600660009054906101000a900473ffffffffffffffffffffffffffffffffffffffff168484604051613441939291906156d9565b60405180910390a16000600e8054905011613491576040517f08c379a00000000000000000000000000000000000000000000000000000000081526004016134889061582d565b60405180910390fd5b600460009054906101000a900473ffffffffffffffffffffffffffffffffffffffff1673ffffffffffffffffffffffffffffffffffffffff1663d0e30db08461c350906040518363ffffffff1660e01b81526004016000604051808303818589803b1580156134ff57600080fd5b5088f1158015613513573d6000803e3d6000fd5b505050505050600460009054906101000a900473ffffffffffffffffffffffffffffffffffffffff1673ffffffffffffffffffffffffffffffffffffffff1663095ea7b3600260009054906101000a900473ffffffffffffffffffffffffffffffffffffffff16856040518363ffffffff1660e01b81526004016135989291906156b0565b600060405180830381600087803b1580156135b257600080fd5b505af11580156135c6573d6000803e3d6000fd5b505050506000600460009054906101000a900473ffffffffffffffffffffffffffffffffffffffff1673ffffffffffffffffffffffffffffffffffffffff166370a08231306040518263ffffffff1660e01b81526004016136279190615649565b60206040518083038186803b15801561363f57600080fd5b505afa158015613653573d6000803e3d6000fd5b505050506040513d601f19601f820116820180604052508101906136779190614ed0565b905060006002600e8054905061368d9190615b81565b67ffffffffffffffff8111156136cc577f4e487b7100000000000000000000000000000000000000000000000000000000600052604160045260246000fd5b6040519080825280602002602001820160405280156136fa5781602001602082028036833780820191505090505b509050600460009054906101000a900473ffffffffffffffffffffffffffffffffffffffff168160008151811061375a577f4e487b7100000000000000000000000000000000000000000000000000000000600052603260045260246000fd5b602002602001019073ffffffffffffffffffffffffffffffffffffffff16908173ffffffffffffffffffffffffffffffffffffffff168152505060005b600e8054905081101561389b57600e81815481106137de577f4e487b7100000000000000000000000000000000000000000000000000000000600052603260045260246000fd5b9060005260206000200160009054906101000a900473ffffffffffffffffffffffffffffffffffffffff16826001836138179190615b81565b8151811061384e577f4e487b7100000000000000000000000000000000000000000000000000000000600052603260045260246000fd5b602002602001019073ffffffffffffffffffffffffffffffffffffffff16908173ffffffffffffffffffffffffffffffffffffffff1681525050808061389390615d68565b915050613797565b50600460009054906101000a900473ffffffffffffffffffffffffffffffffffffffff16816001600e805490506138d29190615b81565b81518110613909577f4e487b7100000000000000000000000000000000000000000000000000000000600052603260045260246000fd5b602002602001019073ffffffffffffffffffffffffffffffffffffffff16908173ffffffffffffffffffffffffffffffffffffffff16815250506000815167ffffffffffffffff811115613986577f4e487b7100000000000000000000000000000000000000000000000000000000600052604160045260246000fd5b6040519080825280602002602001820160405280156139b45781602001602082028036833780820191505090505b50905085816000815181106139f2577f4e487b7100000000000000000000000000000000000000000000000000000000600052603260045260246000fd5b60200260200101818152505060005b60018351613a0f9190615c62565b811015614161576000600267ffffffffffffffff811115613a59577f4e487b7100000000000000000000000000000000000000000000000000000000600052604160045260246000fd5b604051908082528060200260200182016040528015613a875781602001602082028036833780820191505090505b509050838281518110613ac3577f4e487b7100000000000000000000000000000000000000000000000000000000600052603260045260246000fd5b602002602001015181600081518110613b05577f4e487b7100000000000000000000000000000000000000000000000000000000600052603260045260246000fd5b602002602001019073ffffffffffffffffffffffffffffffffffffffff16908173ffffffffffffffffffffffffffffffffffffffff168152505083600183613b4d9190615b81565b81518110613b84577f4e487b7100000000000000000000000000000000000000000000000000000000600052603260045260246000fd5b602002602001015181600181518110613bc6577f4e487b7100000000000000000000000000000000000000000000000000000000600052603260045260246000fd5b602002602001019073ffffffffffffffffffffffffffffffffffffffff16908173ffffffffffffffffffffffffffffffffffffffff16815250506000600f60019054906101000a900473ffffffffffffffffffffffffffffffffffffffff1673ffffffffffffffffffffffffffffffffffffffff1663d06ca61f858581518110613c79577f4e487b7100000000000000000000000000000000000000000000000000000000600052603260045260246000fd5b6020026020010151846040518363ffffffff1660e01b8152600401613c9f929190615908565b60006040518083038186803b158015613cb757600080fd5b505afa158015613ccb573d6000803e3d6000fd5b505050506040513d6000823e3d601f19601f82011682018060405250810190613cf49190614e25565b9050848381518110613d2f577f4e487b7100000000000000000000000000000000000000000000000000000000600052603260045260246000fd5b602002602001015173ffffffffffffffffffffffffffffffffffffffff1663095ea7b3600260009054906101000a900473ffffffffffffffffffffffffffffffffffffffff1683600081518110613daf577f4e487b7100000000000000000000000000000000000000000000000000000000600052603260045260246000fd5b60200260200101516040518363ffffffff1660e01b8152600401613dd49291906156b0565b602060405180830381600087803b158015613dee57600080fd5b505af1158015613e02573d6000803e3d6000fd5b505050506040513d601f19601f82011682018060405250810190613e269190614e66565b506000613e936103e8613e856103dc85600181518110613e6f577f4e487b7100000000000000000000000000000000000000000000000000000000600052603260045260246000fd5b602002602001015161451590919063ffffffff16565b61452b90919063ffffffff16565b9050600f60019054906101000a900473ffffffffffffffffffffffffffffffffffffffff1673ffffffffffffffffffffffffffffffffffffffff16635c11d79583600081518110613f0d577f4e487b7100000000000000000000000000000000000000000000000000000000600052603260045260246000fd5b60200260200101516000863060055442613f279190615b81565b6040518663ffffffff1660e01b8152600401613f47959493929190615961565b600060405180830381600087803b158015613f6157600080fd5b505af1158015613f75573d6000803e3d6000fd5b505050508551600185613f889190615b81565b101561414b57600086600186613f9e9190615b81565b81518110613fd5577f4e487b7100000000000000000000000000000000000000000000000000000000600052603260045260246000fd5b602002602001015173ffffffffffffffffffffffffffffffffffffffff166370a08231306040518263ffffffff1660e01b81526004016140159190615649565b60206040518083038186803b15801561402d57600080fd5b505afa158015614041573d6000803e3d6000fd5b505050506040513d601f19601f820116820180604052508101906140659190614ed0565b9050826001815181106140a1577f4e487b7100000000000000000000000000000000000000000000000000000000600052603260045260246000fd5b602002602001015181106140f657826001815181106140e9577f4e487b7100000000000000000000000000000000000000000000000000000000600052603260045260246000fd5b60200260200101516140f8565b805b866001876141069190615b81565b8151811061413d577f4e487b7100000000000000000000000000000000000000000000000000000000600052603260045260246000fd5b602002602001018181525050505b505050808061415990615d68565b915050613a01565b50600860009054906101000a900473ffffffffffffffffffffffffffffffffffffffff1673ffffffffffffffffffffffffffffffffffffffff16600760009054906101000a900473ffffffffffffffffffffffffffffffffffffffff1673ffffffffffffffffffffffffffffffffffffffff16600660009054906101000a900473ffffffffffffffffffffffffffffffffffffffff1673ffffffffffffffffffffffffffffffffffffffff167feed2342a7ad4e865a58253767b0e63b75428f5cf969db8e857535112270f706c600954600a54600b5460405161424693929190615a15565b60405180910390a46000600460009054906101000a900473ffffffffffffffffffffffffffffffffffffffff1673ffffffffffffffffffffffffffffffffffffffff166370a08231306040518263ffffffff1660e01b81526004016142ab9190615649565b60206040518083038186803b1580156142c357600080fd5b505afa1580156142d7573d6000803e3d6000fd5b505050506040513d601f19601f820116820180604052508101906142fb9190614ed0565b905061432486614316600c548761444b90919063ffffffff16565b61444b90919063ffffffff16565b8111614365576040517f08c379a000000000000000000000000000000000000000000000000000000000815260040161435c9061578d565b60405180910390fd5b600460009054906101000a900473ffffffffffffffffffffffffffffffffffffffff1673ffffffffffffffffffffffffffffffffffffffff16632e1a7d4d826040518263ffffffff1660e01b81526004016143c091906158ed565b600060405180830381600087803b1580156143da57600080fd5b505af11580156143ee573d6000803e3d6000fd5b50505050600f60009054906101000a900460ff1615614442576040517f08c379a0000000000000000000000000000000000000000000000000000000008152600401614439906157ed565b60405180910390fd5b50505050505050565b600081836144599190615b81565b905092915050565b6000600160009054906101000a900473ffffffffffffffffffffffffffffffffffffffff1673ffffffffffffffffffffffffffffffffffffffff1663ed6ff7606040518163ffffffff1660e01b815260040160206040518083038186803b1580156144cb57600080fd5b505afa1580156144df573d6000803e3d6000fd5b505050506040513d601f19601f820116820180604052508101906145039190614c8a565b9050614510818484614541565b505050565b600081836145239190615c08565b905092915050565b600081836145399190615bd7565b905092915050565b73eeeeeeeeeeeeeeeeeeeeeeeeeeeeeeeeeeeeeeee73ffffffffffffffffffffffffffffffffffffffff168273ffffffffffffffffffffffffffffffffffffffff1614156145fc578273ffffffffffffffffffffffffffffffffffffffff168161c350906040516145b190615608565b600060405180830381858888f193505050503d80600081146145ef576040519150601f19603f3d011682016040523d82523d6000602084013e6145f4565b606091505b505050614628565b61462783828473ffffffffffffffffffffffffffffffffffffffff1661462d9092919063ffffffff16565b5b505050565b6146ae8363a9059cbb60e01b848460405160240161464c9291906156b0565b604051602081830303815290604052907bffffffffffffffffffffffffffffffffffffffffffffffffffffffff19166020820180517bffffffffffffffffffffffffffffffffffffffffffffffffffffffff83818316178352505050506146b3565b505050565b6000614715826040518060400160405280602081526020017f5361666545524332303a206c6f772d6c6576656c2063616c6c206661696c65648152508573ffffffffffffffffffffffffffffffffffffffff1661477a9092919063ffffffff16565b905060008151111561477557808060200190518101906147359190614e66565b614774576040517f08c379a000000000000000000000000000000000000000000000000000000000815260040161476b9061586d565b60405180910390fd5b5b505050565b60606147898484600085614792565b90509392505050565b6060824710156147d7576040517f08c379a00000000000000000000000000000000000000000000000000000000081526004016147ce9061576d565b60405180910390fd5b6147e0856148a6565b61481f576040517f08c379a00000000000000000000000000000000000000000000000000000000081526004016148169061584d565b60405180910390fd5b6000808673ffffffffffffffffffffffffffffffffffffffff16858760405161484891906155f1565b60006040518083038185875af1925050503d8060008114614885576040519150601f19603f3d011682016040523d82523d6000602084013e61488a565b606091505b509150915061489a8282866148b9565b92505050949350505050565b600080823b905060008111915050919050565b606083156148c957829050614919565b6000835111156148dc5782518084602001fd5b816040517f08c379a0000000000000000000000000000000000000000000000000000000008152600401614910919061572b565b60405180910390fd5b9392505050565b828054828255906000526020600020908101928215614999579160200282015b828111156149985782518260006101000a81548173ffffffffffffffffffffffffffffffffffffffff021916908373ffffffffffffffffffffffffffffffffffffffff16021790555091602001919060010190614940565b5b5090506149a691906149aa565b5090565b5b808211156149c35760008160009055506001016149ab565b5090565b60006149da6149d584615a7d565b615a4c565b905080838252602082019050828560208602820111156149f957600080fd5b60005b85811015614a295781614a0f8882614add565b8452602084019350602083019250506001810190506149fc565b5050509392505050565b6000614a46614a4184615aa9565b615a4c565b90508083825260208201905082856020860282011115614a6557600080fd5b60005b85811015614a955781614a7b8882614c23565b845260208401935060208301925050600181019050614a68565b5050509392505050565b6000614ab2614aad84615ad5565b615a4c565b905082815260208101848484011115614aca57600080fd5b614ad5848285615d26565b509392505050565b600081359050614aec81615e8a565b92915050565b600081519050614b0181615e8a565b92915050565b600081519050614b1681615ea1565b92915050565b600082601f830112614b2d57600080fd5b8135614b3d8482602086016149c7565b91505092915050565b600082601f830112614b5757600080fd5b8151614b67848260208601614a33565b91505092915050565b600081359050614b7f81615eb8565b92915050565b600081519050614b9481615eb8565b92915050565b60008083601f840112614bac57600080fd5b8235905067ffffffffffffffff811115614bc557600080fd5b602083019150836001820283011115614bdd57600080fd5b9250929050565b600082601f830112614bf557600080fd5b8135614c05848260208601614a9f565b91505092915050565b600081359050614c1d81615ecf565b92915050565b600081519050614c3281615ecf565b92915050565b600060208284031215614c4a57600080fd5b6000614c5884828501614add565b91505092915050565b600060208284031215614c7357600080fd5b6000614c8184828501614af2565b91505092915050565b600060208284031215614c9c57600080fd5b6000614caa84828501614b07565b91505092915050565b60008060408385031215614cc657600080fd5b6000614cd485828601614add565b9250506020614ce585828601614c0e565b9150509250929050565b600080600060608486031215614d0457600080fd5b6000614d1286828701614add565b9350506020614d2386828701614c0e565b9250506040614d3486828701614add565b9150509250925092565b600080600060608486031215614d5357600080fd5b6000614d6186828701614add565b9350506020614d7286828701614c0e565b925050604084013567ffffffffffffffff811115614d8f57600080fd5b614d9b86828701614be4565b9150509250925092565b600080600080600060808688031215614dbd57600080fd5b6000614dcb88828901614add565b9550506020614ddc88828901614c0e565b9450506040614ded88828901614c0e565b935050606086013567ffffffffffffffff811115614e0a57600080fd5b614e1688828901614b9a565b92509250509295509295909350565b600060208284031215614e3757600080fd5b600082015167ffffffffffffffff811115614e5157600080fd5b614e5d84828501614b46565b91505092915050565b600060208284031215614e7857600080fd5b6000614e8684828501614b85565b91505092915050565b600060208284031215614ea157600080fd5b600082013567ffffffffffffffff811115614ebb57600080fd5b614ec784828501614be4565b91505092915050565b600060208284031215614ee257600080fd5b6000614ef084828501614c23565b91505092915050565b6000806000806000806000806000806101408b8d031215614f1957600080fd5b6000614f278d828e01614c0e565b9a50506020614f388d828e01614add565b9950506040614f498d828e01614c0e565b9850506060614f5a8d828e01614add565b9750506080614f6b8d828e01614add565b96505060a0614f7c8d828e01614c0e565b95505060c0614f8d8d828e01614c0e565b94505060e0614f9e8d828e01614c0e565b935050610100614fb08d828e01614b70565b9250506101208b013567ffffffffffffffff811115614fce57600080fd5b614fda8d828e01614b1c565b9150509295989b9194979a5092959850565b6000614ff88383615004565b60208301905092915050565b61500d81615c96565b82525050565b61501c81615c96565b82525050565b600061502d82615b15565b6150378185615b43565b935061504283615b05565b8060005b8381101561507357815161505a8882614fec565b975061506583615b36565b925050600181019050615046565b5085935050505092915050565b61508981615cba565b82525050565b6150a061509b82615cba565b615db1565b82525050565b60006150b182615b20565b6150bb8185615b54565b93506150cb818560208601615d35565b6150d481615e6c565b840191505092915050565b60006150ea82615b20565b6150f48185615b65565b9350615104818560208601615d35565b80840191505092915050565b61511981615cf0565b82525050565b61512881615d14565b82525050565b600061513982615b2b565b6151438185615b70565b9350615153818560208601615d35565b61515c81615e6c565b840191505092915050565b6000615174602683615b70565b91507f4f776e61626c653a206e6577206f776e657220697320746865207a65726f206160008301527f64647265737300000000000000000000000000000000000000000000000000006020830152604082019050919050565b60006151da602683615b70565b91507f416464726573733a20696e73756666696369656e742062616c616e636520666f60008301527f722063616c6c00000000000000000000000000000000000000000000000000006020830152604082019050919050565b6000615240601b83615b70565b91507f6469646e2774206d616b6520612070726f66697420617420616c6c00000000006000830152602082019050919050565b6000615280602083615b70565b91507f5472616e73666572206661696c65642e2074727920616761696e206c617465726000830152602082019050919050565b60006152c0602e83615b70565b91507f496e76616c69642062616c616e63652c207761732074686520666c6173684c6f60008301527f616e207375636365737366756c3f0000000000000000000000000000000000006020830152604082019050919050565b6000615326602d83615b70565b91507f54657374696e6720497320446f6e652c20746865206f7065726174696f6e207760008301527f61732070726f66697461626c65000000000000000000000000000000000000006020830152604082019050919050565b600061538c602083615b70565b91507f4f776e61626c653a2063616c6c6572206973206e6f7420746865206f776e65726000830152602082019050919050565b60006153cc601383615b70565b91507f5061746820617272617920697320656d707479000000000000000000000000006000830152602082019050919050565b600061540c600083615b65565b9150600082019050919050565b6000615426601d83615b70565b91507f416464726573733a2063616c6c20746f206e6f6e2d636f6e74726163740000006000830152602082019050919050565b6000615466602a83615b70565b91507f5361666545524332303a204552433230206f7065726174696f6e20646964206e60008301527f6f742073756363656564000000000000000000000000000000000000000000006020830152604082019050919050565b60006154cc602983615b70565b91507f796f752063616e2774207769746864726177206d6f7265207468616e20796f7560008301527f722062616c616e636500000000000000000000000000000000000000000000006020830152604082019050919050565b6000615532602083615b70565b91507f796f75206d7573742061737369676e206120746f6b656e2061646464726573736000830152602082019050919050565b6000615572602583615b70565b91507f796f75206d7573742061737369676e20616e206164647265737320746f20736560008301527f6e6420746f0000000000000000000000000000000000000000000000000000006020830152604082019050919050565b6155d481615ce6565b82525050565b6155eb6155e682615ce6565b615dc3565b82525050565b60006155fd82846150df565b915081905092915050565b6000615613826153ff565b9150819050919050565b600061562982856155da565b602082019150615639828461508f565b6001820191508190509392505050565b600060208201905061565e6000830184615013565b92915050565b60006080820190506156796000830187615013565b6156866020830186615013565b61569360408301856155cb565b81810360608301526156a581846150a6565b905095945050505050565b60006040820190506156c56000830185615013565b6156d260208301846155cb565b9392505050565b60006060820190506156ee6000830186615013565b6156fb60208301856155cb565b61570860408301846155cb565b949350505050565b60006020820190506157256000830184615110565b92915050565b60006020820190508181036000830152615745818461512e565b905092915050565b6000602082019050818103600083015261576681615167565b9050919050565b60006020820190508181036000830152615786816151cd565b9050919050565b600060208201905081810360008301526157a681615233565b9050919050565b600060208201905081810360008301526157c681615273565b9050919050565b600060208201905081810360008301526157e6816152b3565b9050919050565b6000602082019050818103600083015261580681615319565b9050919050565b600060208201905081810360008301526158268161537f565b9050919050565b60006020820190508181036000830152615846816153bf565b9050919050565b6000602082019050818103600083015261586681615419565b9050919050565b6000602082019050818103600083015261588681615459565b9050919050565b600060208201905081810360008301526158a6816154bf565b9050919050565b600060208201905081810360008301526158c681615525565b9050919050565b600060208201905081810360008301526158e681615565565b9050919050565b600060208201905061590260008301846155cb565b92915050565b600060408201905061591d60008301856155cb565b818103602083015261592f8184615022565b90509392505050565b600060408201905061594d60008301856155cb565b61595a6020830184615080565b9392505050565b600060a08201905061597660008301886155cb565b615983602083018761511f565b81810360408301526159958186615022565b90506159a46060830185615013565b6159b160808301846155cb565b9695505050505050565b600060a0820190506159d060008301886155cb565b6159dd60208301876155cb565b81810360408301526159ef8186615022565b90506159fe6060830185615013565b615a0b60808301846155cb565b9695505050505050565b6000606082019050615a2a60008301866155cb565b615a3760208301856155cb565b615a4460408301846155cb565b949350505050565b6000604051905081810181811067ffffffffffffffff82111715615a7357615a72615e3d565b5b8060405250919050565b600067ffffffffffffffff821115615a9857615a97615e3d565b5b602082029050602081019050919050565b600067ffffffffffffffff821115615ac457615ac3615e3d565b5b602082029050602081019050919050565b600067ffffffffffffffff821115615af057615aef615e3d565b5b601f19601f8301169050602081019050919050565b6000819050602082019050919050565b600081519050919050565b600081519050919050565b600081519050919050565b6000602082019050919050565b600082825260208201905092915050565b600082825260208201905092915050565b600081905092915050565b600082825260208201905092915050565b6000615b8c82615ce6565b9150615b9783615ce6565b9250827fffffffffffffffffffffffffffffffffffffffffffffffffffffffffffffffff03821115615bcc57615bcb615ddf565b5b828201905092915050565b6000615be282615ce6565b9150615bed83615ce6565b925082615bfd57615bfc615e0e565b5b828204905092915050565b6000615c1382615ce6565b9150615c1e83615ce6565b9250817fffffffffffffffffffffffffffffffffffffffffffffffffffffffffffffffff0483118215151615615c5757615c56615ddf565b5b828202905092915050565b6000615c6d82615ce6565b9150615c7883615ce6565b925082821015615c8b57615c8a615ddf565b5b828203905092915050565b6000615ca182615cc6565b9050919050565b6000615cb382615cc6565b9050919050565b60008115159050919050565b600073ffffffffffffffffffffffffffffffffffffffff82169050919050565b6000819050919050565b6000615cfb82615d02565b9050919050565b6000615d0d82615cc6565b9050919050565b6000615d1f82615ce6565b9050919050565b82818337600083830152505050565b60005b83811015615d53578082015181840152602081019050615d38565b83811115615d62576000848401525b50505050565b6000615d7382615ce6565b91507fffffffffffffffffffffffffffffffffffffffffffffffffffffffffffffffff821415615da657615da5615ddf565b5b600182019050919050565b6000615dbc82615dcd565b9050919050565b6000819050919050565b6000615dd882615e7d565b9050919050565b7f4e487b7100000000000000000000000000000000000000000000000000000000600052601160045260246000fd5b7f4e487b7100000000000000000000000000000000000000000000000000000000600052601260045260246000fd5b7f4e487b7100000000000000000000000000000000000000000000000000000000600052604160045260246000fd5b6000601f19601f8301169050919050565b60008160f81b9050919050565b615e9381615c96565b8114615e9e57600080fd5b50565b615eaa81615ca8565b8114615eb557600080fd5b50565b615ec181615cba565b8114615ecc57600080fd5b50565b615ed881615ce6565b8114615ee357600080fd5b5056fea2646970667358221220b77610e5368ec3b27c2e3b79071218ca9d9b1e903390d5524e776815a89fcc0d64736f6c63430008000033",
  "immutableReferences": {},
  "source": "pragma solidity >=0.5.0;\n\n\nimport \"../node_modules/openzeppelin-solidity/contracts/token/ERC20/ERC20.sol\";\nimport \"../node_modules/openzeppelin-solidity/contracts/utils/math/SafeMath.sol\";\nimport \"../node_modules/openzeppelin-solidity/contracts/access/Ownable.sol\";\nimport \"./base/FlashLoanReceiverBase.sol\";\nimport \"./interfaces/ILendingPool.sol\";\nimport \"./interfaces/ILendingPoolAddressesProvider.sol\";\nimport \"./pancakeSwap/PancakeRouterV2.sol\";\nimport \"./WBNB.sol\";\n\ncontract smartTrade is Ownable, FlashLoanReceiverBase(address(0xCc0479a98cC66E85806D0Cd7970d6e07f77Fd633)) {\n\n    using SafeMath for uint256;\n\n    // testnet address of the pancake router\n    address routerAddress = 0x10ED43C718714eb63d5aA57B78B54704E256024E;\n    // testnet BNB ADDRESS\n    address bnbAddress;\n    address WBNBAddress;\n    uint deadline = 5;\n    address pairA;\n    address pairB;\n    address pairC;\n    uint256 pairAValue;\n    uint256 pairBValue;\n    uint256 pairCValue;\n    uint256 InitGasCost;\n    uint256 minimumProfit;\n    address[] dynamicPathArray;\n    bool currentIsTesting;\n\n    constructor(address mainBNBAddress, address mainWBNBAddress){\n        bnbAddress = mainBNBAddress;\n        WBNBAddress = mainWBNBAddress;\n    }\n\n    event SwapDone(\n        address indexed a,\n        address indexed b,\n        address indexed c,\n        uint256 am,\n        uint256 bm,\n        uint256 cm\n    );\n\n    event LoanTaken(\n        address token,\n        uint256 value,\n        uint256 fee\n    );\n\n    event LoanPayed(\n        address token,\n        uint256 value,\n        uint256 fee\n    );\n\n    Router pancakeRouterV2 = Router(routerAddress);\n\n\n    function directTokenSwap(uint256 minimumProfit, uint256 _amount, uint256 _fee, bool test) internal{\n        uint256 earlyFirstBalance = ERC20(pairA).balanceOf(address(this));\n        address[] memory longPath = new address[](4);\n        longPath[0]=pairA;\n        longPath[1]=pairB;\n        longPath[2]=pairC;\n        longPath[3]=pairA;\n        pancakeRouterV2.swapExactTokensForTokens(_amount, pairAValue, longPath, address(this), block.timestamp+deadline);\n        emit SwapDone(pairA,pairB,pairC,pairAValue,pairBValue,pairCValue);\n\n        uint256 lateFirstBalance = ERC20(pairA).balanceOf(address(this));\n\n        require(lateFirstBalance > earlyFirstBalance.add(minimumProfit).add(_fee), \"didn't make a profit at all\");\n\n        if(currentIsTesting){\n            revert(\"Testing Is Done, the operation was profitable\");\n        }\n    }\n    function DynamicPathWBNBBridgedSwap(uint256 _amount, uint256 _fee, bool test) internal {\n        emit LoanTaken(pairA,_amount,_fee);\n\n        require(dynamicPathArray.length > 0, \"Path array is empty\");\n        // Buy WBNB with loaned BNB\n\n        WBNB(WBNBAddress).deposit{value:_amount, gas:50000}();\n        WBNB(WBNBAddress).approve(routerAddress,_amount);\n\n        // check the balance of WBWB of the contract wallet\n        uint256 earlyFirstBalance = ERC20(WBNBAddress).balanceOf(address(this));\n\n        address[] memory longPath = new address[](dynamicPathArray.length +2);\n        longPath[0]=WBNBAddress;\n        for (uint i=0; i<dynamicPathArray.length; i++){\n            longPath[i+1] = dynamicPathArray[i];\n        }\n        longPath[dynamicPathArray.length+1]=WBNBAddress;\n\n        // Long path swaps execution\n        pancakeRouterV2.swapExactTokensForTokens(_amount, pairAValue, longPath, address(this), block.timestamp+deadline);\n\n        emit SwapDone(pairA,pairB,pairC,pairAValue,pairBValue,pairCValue);\n\n        // reChecking the balance of WBWB of the contract wallet after swap\n        uint256 lateFirstBalance = ERC20(WBNBAddress).balanceOf(address(this));\n\n        // Profit calculation\n        require(lateFirstBalance > earlyFirstBalance.add(InitGasCost).add(_fee), \"didn't make a profit at all\");\n\n        WBNB(WBNBAddress).withdraw(lateFirstBalance);\n\n\n        if(currentIsTesting){\n            revert(\"Testing Is Done, the operation was profitable\");\n        }\n\n    }\n\n\n    function DynamicPathWBNBBridgedSingleStepSwap(uint256 _amount, uint256 _fee, bool test) internal {\n        emit LoanTaken(pairA,_amount,_fee);\n\n        require(dynamicPathArray.length > 0, \"Path array is empty\");\n        // Buy WBNB with loaned BNB\n\n        WBNB(WBNBAddress).deposit{value:_amount, gas:50000}();\n        WBNB(WBNBAddress).approve(routerAddress,_amount);\n\n        // check the balance of WBWB of the contract wallet\n        uint256 earlyFirstBalance = ERC20(WBNBAddress).balanceOf(address(this));\n\n        address[] memory longPath = new address[](dynamicPathArray.length +2);\n        longPath[0]=WBNBAddress;\n        for (uint i=0; i<dynamicPathArray.length; i++){\n            longPath[i+1] = dynamicPathArray[i];\n        }\n        longPath[dynamicPathArray.length+1]=WBNBAddress;\n\n        //Step by step execution\n        uint256[] memory amountOuts = new uint[](longPath.length);\n        amountOuts[0] = _amount;\n        for (uint i=0; i<longPath.length - 1; i++){\n            address[] memory path = new address[](2);\n            path[0]=longPath[i] ;\n            path[1]=longPath[i + 1];\n            uint256[] memory amountsOut = pancakeRouterV2.getAmountsOut(amountOuts[i], path);\n            ERC20(longPath[i]).approve(routerAddress,amountsOut[0]);\n            uint256 slippedAmount = uint256(amountsOut[1]).mul(988).div(1000);\n            pancakeRouterV2.swapExactTokensForTokensSupportingFeeOnTransferTokens(amountsOut[0], 0, path, address(this), block.timestamp+deadline);\n            //uint[] memory afterSwapAmounts = pancakeRouterV2.swapExactTokensForTokens(amountsOut[0], amountsOut[1], path, address(this), block.timestamp+deadline);\n            if(i+1 < longPath.length){\n                uint256 nextBalance = ERC20(longPath[i + 1]).balanceOf(address(this));\n                amountOuts[i+1] = nextBalance < amountsOut[1] ? nextBalance : amountsOut[1];\n            }\n        }\n\n        emit SwapDone(pairA,pairB,pairC,pairAValue,pairBValue,pairCValue);\n\n        // reChecking the balance of WBWB of the contract wallet after swap\n        uint256 lateFirstBalance = ERC20(WBNBAddress).balanceOf(address(this));\n\n        // Profit calculation\n        require(lateFirstBalance > earlyFirstBalance.add(InitGasCost).add(_fee), \"didn't make a profit at all\");\n\n        WBNB(WBNBAddress).withdraw(lateFirstBalance);\n\n\n        if(currentIsTesting){\n            revert(\"Testing Is Done, the operation was profitable\");\n        }\n\n    }\n\n    function DynamicPathWBNBBridgedSwapWithFees(uint256 _amount, uint256 _fee, bool test) internal {\n        emit LoanTaken(pairA,_amount,_fee);\n\n        require(dynamicPathArray.length > 0, \"Path array is empty\");\n        // Buy WBNB with loaned BNB\n\n        WBNB(WBNBAddress).deposit{value:_amount, gas:50000}();\n        WBNB(WBNBAddress).approve(routerAddress,_amount);\n\n        // check the balance of WBWB of the contract wallet\n        uint256 earlyFirstBalance = ERC20(WBNBAddress).balanceOf(address(this));\n\n        address[] memory longPath = new address[](dynamicPathArray.length +2);\n        longPath[0]=WBNBAddress;\n        for (uint i=0; i<dynamicPathArray.length; i++){\n            longPath[i+1] = dynamicPathArray[i];\n        }\n        longPath[dynamicPathArray.length+1]=WBNBAddress;\n\n        // Long path swaps execution\n        pancakeRouterV2.swapExactTokensForTokensSupportingFeeOnTransferTokens(_amount, pairAValue, longPath, address(this), block.timestamp+deadline);\n\n        emit SwapDone(pairA,pairB,pairC,pairAValue,pairBValue,pairCValue);\n\n        // reChecking the balance of WBWB of the contract wallet after swap\n        uint256 lateFirstBalance = ERC20(WBNBAddress).balanceOf(address(this));\n\n        // Profit calculation\n        require(lateFirstBalance > earlyFirstBalance.add(InitGasCost).add(_fee), \"didn't make a profit at all\");\n\n        WBNB(WBNBAddress).withdraw(lateFirstBalance);\n\n\n        if(currentIsTesting){\n            revert(\"Testing Is Done, the operation was profitable\");\n        }\n\n    }\n\n    function WBNBBridgedSwap(uint256 _amount, uint256 _fee, bool test) internal {\n        emit LoanTaken(pairA,_amount,_fee);\n\n        // Buy WBNB with loaned BNB\n\n        WBNB(WBNBAddress).deposit{value:_amount, gas:50000}();\n        WBNB(WBNBAddress).approve(routerAddress,_amount);\n\n        // check the balance of WBWB of the contract wallet\n        uint256 earlyFirstBalance = ERC20(WBNBAddress).balanceOf(address(this));\n\n        address[] memory longPath = new address[](6);\n        longPath[0]=WBNBAddress;\n        longPath[1]=pairA;\n        longPath[2]=pairB;\n        longPath[3]=pairC;\n        longPath[4]=pairA;\n        longPath[5]=WBNBAddress;\n\n        // Long path swaps execution\n        pancakeRouterV2.swapExactTokensForTokens(_amount, pairAValue, longPath, address(this), block.timestamp+deadline);\n\n        emit SwapDone(pairA,pairB,pairC,pairAValue,pairBValue,pairCValue);\n\n        // reChecking the balance of WBWB of the contract wallet after swap\n        uint256 lateFirstBalance = ERC20(WBNBAddress).balanceOf(address(this));\n\n        // Profit calculation\n        require(lateFirstBalance > earlyFirstBalance.add(InitGasCost).add(_fee), \"didn't make a profit at all\");\n\n        WBNB(WBNBAddress).withdraw(lateFirstBalance);\n\n\n        if(currentIsTesting){\n            revert(\"Testing Is Done, the operation was profitable\");\n        }\n\n    }\n\n    function  executeOperation (\n        address _reserve,\n        uint256 _amount,\n        uint256 _fee,\n        bytes calldata _params\n    )\n    external override\n    {\n        require(_amount <= getBalanceInternal(address(this), _reserve), \"Invalid balance, was the flashLoan successful?\");\n\n        emit LoanTaken(pairA,_amount,_fee);\n\n        (uint decodedType, bool test) = decode(_params);\n\n        if(decodedType == 1){\n            WBNBBridgedSwap(_amount, _fee, test);\n        }else{\n            if(decodedType == 2){\n                directTokenSwap(minimumProfit, _amount, _fee, test);\n            }else{\n                if(decodedType == 3){\n                    DynamicPathWBNBBridgedSwap(_amount, _fee, test);\n                }else{\n                    if(decodedType == 4){\n                        DynamicPathWBNBBridgedSwapWithFees(_amount, _fee, test);\n                    }else{\n                        if(decodedType == 5){\n                            DynamicPathWBNBBridgedSingleStepSwap(_amount, _fee, test);\n                        }\n                    }\n                }\n            }\n        }\n\n        // Time to transfer the funds back\n        uint totalDebt = _amount.add(_fee);\n        transferFundsBackToPoolInternal(_reserve, totalDebt);\n        emit LoanPayed(pairA, _amount, _fee);\n    }\n\n    function getFlashLoan(address loanToken, uint256 amount, bytes memory data) public onlyOwner {\n        address asset = address(loanToken);\n        ILendingPool lendingPool = ILendingPool(addressesProvider.getLendingPool());\n        lendingPool.flashLoan(address(this), asset, amount, data);\n    }\n\n\n    function executeSwaps(\n        uint256 bnbAmount,\n        address pairOne,\n        uint256 pairOneAmount,\n        address pairTwo,\n        address pairThree,\n        uint256 initialGasCost,\n        uint256 minimumProfit,\n        uint swapType,\n        bool test,\n        address[] memory dynamicPath\n    ) public onlyOwner {\n        pairA=pairOne;\n        pairB=pairTwo;\n        pairC=pairThree;\n        pairAValue=pairOneAmount;\n        InitGasCost=initialGasCost;\n        minimumProfit=minimumProfit;\n        dynamicPathArray=dynamicPath;\n        currentIsTesting=test;\n        address loanToken;\n        if(swapType != 2){\n            loanToken = bnbAddress;\n        }else {\n            loanToken = pairA;\n        }\n        getFlashLoan(loanToken, bnbAmount, abi.encodePacked(swapType, test));\n    }\n\n\n    function withdraw(address _to, uint256 _amount) onlyOwner public{\n        uint256 balance = address(this).balance;\n        require(_amount < balance, \"you can't withdraw more than your balance\");\n        require(_to != address(0), \"you must assign an address to send to\");\n        (bool success, ) = _to.call{value:_amount}(\"\");\n        require(success, \"Transfer failed. try again later\");\n    }\n\n    function withdrawToken(address _to, uint256 _amount, address _token) onlyOwner public{\n        require(_to != address(0), \"you must assign an address to send to\");\n        require(_token != address(0), \"you must assign a token adddress\");\n        uint256 lateFirstBalance = ERC20(_token).balanceOf(address(this));\n        require(_amount < lateFirstBalance, \"you can't withdraw more than your balance\");\n        bool success = ERC20(_token).transfer(_to, _amount);\n        require(success, \"Transfer failed. try again later\");\n    }\n\n\n    function decode(bytes memory data) public pure returns (uint a, bool b) {\n        assembly {\n            a := mload(\n                add(\n                    data,\n                    32\n                )\n            )\n\n            b := mload(\n                add(\n                    data,\n                    8\n                )\n            )\n\n        }\n    }\n\n\n}\n",
  "sourcePath": "/Users/mac/Documents/smartTradeContract/contracts/smartTrade.sol",
  "compiler": {
    "name": "solc",
    "version": "0.8.0+commit.c7dfd78e.Emscripten.clang"
  },
  "schemaVersion": "3.3.4",
  "updatedAt": "2021-07-01T14:27:10.253Z",
  "networkType": "ethereum",
  "devdoc": {
    "kind": "dev",
    "methods": {
      "owner()": {
        "details": "Returns the address of the current owner."
      },
      "renounceOwnership()": {
        "details": "Leaves the contract without owner. It will not be possible to call `onlyOwner` functions anymore. Can only be called by the current owner. NOTE: Renouncing ownership will leave the contract without an owner, thereby removing any functionality that is only available to the owner."
      },
      "transferOwnership(address)": {
        "details": "Transfers ownership of the contract to a new account (`newOwner`). Can only be called by the current owner."
      }
    },
    "version": 1
  },
  "userdoc": {
    "kind": "user",
    "methods": {},
    "version": 1
  }
}